{
  "contractName": "Broker",
  "abi": [
    {
      "inputs": [
        {
          "internalType": "contract Collectible",
          "name": "_token",
          "type": "address"
        }
      ],
      "stateMutability": "nonpayable",
      "type": "constructor"
    },
    {
      "anonymous": false,
      "inputs": [
        {
          "indexed": true,
          "internalType": "address",
          "name": "user",
          "type": "address"
        },
        {
          "indexed": false,
          "internalType": "string",
          "name": "category",
          "type": "string"
        },
        {
          "indexed": false,
          "internalType": "string",
          "name": "challenge",
          "type": "string"
        }
      ],
      "name": "minedSuccessfully",
      "type": "event"
    },
    {
      "inputs": [
        {
          "internalType": "string",
          "name": "challenge",
          "type": "string"
        },
        {
          "internalType": "string",
          "name": "category",
          "type": "string"
        }
      ],
      "name": "check_challenge",
      "outputs": [
        {
          "internalType": "uint256",
          "name": "",
          "type": "uint256"
        }
      ],
      "stateMutability": "view",
      "type": "function"
    },
    {
      "inputs": [
        {
          "internalType": "string",
          "name": "challenge",
          "type": "string"
        },
        {
          "internalType": "string",
          "name": "category",
          "type": "string"
        }
      ],
      "name": "mine",
      "outputs": [],
      "stateMutability": "payable",
      "type": "function"
    }
  ],
  "bytecode": "0x608060405234801561001057600080fd5b506040516109de3803806109de8339818101604052602081101561003357600080fd5b8101908080519060200190929190505050806000806101000a81548173ffffffffffffffffffffffffffffffffffffffff021916908373ffffffffffffffffffffffffffffffffffffffff1602179055505061094a806100946000396000f3fe6080604052600436106100295760003560e01c80630a508f581461002e5780631928196f14610180575b600080fd5b61017e6004803603604081101561004457600080fd5b810190808035906020019064010000000081111561006157600080fd5b82018360208201111561007357600080fd5b8035906020019184600183028401116401000000008311171561009557600080fd5b91908080601f016020809104026020016040519081016040528093929190818152602001838380828437600081840152601f19601f820116905080830192505050505050509192919290803590602001906401000000008111156100f857600080fd5b82018360208201111561010a57600080fd5b8035906020019184600183028401116401000000008311171561012c57600080fd5b91908080601f016020809104026020016040519081016040528093929190818152602001838380828437600081840152601f19601f8201169050808301925050505050505091929192905050506102f3565b005b34801561018c57600080fd5b506102dd600480360360408110156101a357600080fd5b81019080803590602001906401000000008111156101c057600080fd5b8201836020820111156101d257600080fd5b803590602001918460018302840111640100000000831117156101f457600080fd5b91908080601f016020809104026020016040519081016040528093929190818152602001838380828437600081840152601f19601f8201169050808301925050505050505091929192908035906020019064010000000081111561025757600080fd5b82018360208201111561026957600080fd5b8035906020019184600183028401116401000000008311171561028b57600080fd5b91908080601f016020809104026020016040519081016040528093929190818152602001838380828437600081840152601f19601f820116905080830192505050505050509192919290505050610546565b6040518082815260200191505060405180910390f35b60006102ff8383610546565b90506000811415610378576040517f08c379a000000000000000000000000000000000000000000000000000000000815260040180806020018281038252601c8152602001807f446964206e6f7420637261636b20746865206368616c6c656e67652e0000000081525060200191505060405180910390fd5b3373ffffffffffffffffffffffffffffffffffffffff167fa6d40dfa07ef2e7fc4fb752af705f435e7c3749381cb4952225311f02c3767878385604051808060200180602001838103835285818151815260200191508051906020019080838360005b838110156103f65780820151818401526020810190506103db565b50505050905090810190601f1680156104235780820380516001836020036101000a031916815260200191505b50838103825284818151815260200191508051906020019080838360005b8381101561045c578082015181840152602081019050610441565b50505050905090810190601f1680156104895780820380516001836020036101000a031916815260200191505b5094505050505060405180910390a260008054906101000a900473ffffffffffffffffffffffffffffffffffffffff1673ffffffffffffffffffffffffffffffffffffffff166394bf804d82336040518363ffffffff1660e01b8152600401808381526020018273ffffffffffffffffffffffffffffffffffffffff16815260200192505050600060405180830381600087803b15801561052957600080fd5b505af115801561053d573d6000803e3d6000fd5b50505050505050565b600080836040516020018082805190602001908083835b60208310610580578051825260208201915060208101905060208303925061055d565b6001836020036101000a038019825116818451168082178552505050505050905001915050604051602081830303815290604052805190602001209050606081604051602001808281526020019150506040516020818303038152906040529050606060008054906101000a900473ffffffffffffffffffffffffffffffffffffffff1673ffffffffffffffffffffffffffffffffffffffff1663857dcd87866040518263ffffffff1660e01b81526004018080602001828103825283818151815260200191508051906020019080838360005b8381101561066f578082015181840152602081019050610654565b50505050905090810190601f16801561069c5780820380516001836020036101000a031916815260200191505b509250505060206040518083038186803b1580156106b957600080fd5b505afa1580156106cd573d6000803e3d6000fd5b505050506040513d60208110156106e357600080fd5b8101908080519060200190929190505050604051602001808281526020019150506040516020818303038152906040529050815181511115610770576040517f08c379a00000000000000000000000000000000000000000000000000000000081526004018080602001828103825260358152602001806108e06035913960400191505060405180910390fd5b600080600090505b825181101561082f57600084826001875103038151811061079557fe5b602001015160f81c60f81b905060008483600187510303815181106107b657fe5b602001015160f81c60f81b9050807effffffffffffffffffffffffffffffffffffffffffffffffffffffffffffff1916827effffffffffffffffffffffffffffffffffffffffffffffffffffffffffffff19161461081357600193505b831561082057505061082f565b50508080600101915050610778565b508015610843576000945050505050610853565b61084c84610859565b9450505050505b92915050565b60008060001b82141561086b57600080fd5b600080600090505b60208110156108d85760ff81601f0360080260020a8560001c8161089357fe5b0416915060008214156108a5576108d8565b60308210806108b45750603982115b6108bd57600080fd5b600a8302925060308203830192508080600101915050610873565b505091905056fe4572726f722c2074686520746172676574206964656e746966696572206973206c6f6e676572207468616e2074686520686173682ea2646970667358221220888e57ea83e528acd73283563666d4740c2ca968f7bdaca5db52646242a0441c64736f6c63430007000033",
  "immutableReferences": {},
  "source": "//SPDX-License-Identifier: MIT\npragma solidity >= 0.6.0 <0.8.0;\n\nimport \"./Collectible.sol\";\n\ncontract Broker {\n    Collectible private token;\n\n    constructor (Collectible _token) {\n        token=_token;\n    }\n\n    event minedSuccessfully(address indexed user, string category, string challenge);\n\n    /**\n     * @param challenge is the challenge string, basically a random input of arbitrary length\n     * @param category which category you'd like to mine, must exist in the Collectible's mapping\n     * \n     * summary:\n     * challenge = \"apple\"\n     * target = \"cd25\"\n     * returns keccak256(\"apple\") == 0x??...??cd25 (so returns true)\n     */\n    function check_challenge(string memory challenge, string memory category) public view returns(uint) {\n        // hash with last blockhash to avoid giving an advantage to people mining locally without pinging this contract\n        bytes32 hashed_challenge = keccak256(abi.encodePacked(challenge/*,blockhash(block.number-1)*/));\n\n        bytes memory hashed_ch_bytes = abi.encodePacked(hashed_challenge);\n        bytes memory target_bytes = abi.encodePacked(token.getCategoryTarget(category)); // returns the bits associated with this category's rarity\n\n        require(target_bytes.length <= hashed_ch_bytes.length, \"Error, the target identifier is longer than the hash.\");\n\n        // the core, check every 4 bits if they're equal\n        bool failed;\n        for (uint256 i = 0; i < target_bytes.length; i++) {\n            bytes1 hash_byte = hashed_ch_bytes[hashed_ch_bytes.length-1-i];\n            bytes1 target_byte = target_bytes[target_bytes.length-1-i];\n\n            if (hash_byte != target_byte) failed=true;\n            if (failed) break;\n        }\n        if (failed) return 0;\n        else return bytesToUInt(hashed_challenge);\n    }\n\n    function mine(string memory challenge, string memory category) public payable {\n        uint id = check_challenge(challenge, category);\n        require(id != 0, \"Did not crack the challenge.\");\n        emit minedSuccessfully(msg.sender, category, challenge);\n        token.mint(id, msg.sender);\n    }\n\n    /// @dev Converts a numeric string to its unsigned integer representation.\n    /// @param v The string to be converted.\n    function bytesToUInt(bytes32 v) pure private returns (uint ret) {\n        require (v != 0x0);\n\n        uint digit;\n\n        for (uint i = 0; i < 32; i++) {\n            digit = uint((uint(v) / (2 ** (8 * (31 - i)))) & 0xff);\n            if (digit == 0) {\n                break;\n            }\n            require(digit < 48 || digit > 57);\n            ret *= 10;\n            ret += (digit - 48);\n        }\n        return ret;\n    }\n}",
  "sourcePath": "/home/robbe/Desktop/Introducing Rarity with NFT/contracts/Broker.sol",
  "compiler": {
    "name": "solc",
    "version": "0.7.0+commit.9e61f92b.Emscripten.clang"
  },
  "schemaVersion": "3.3.4",
  "updatedAt": "2021-03-24T09:33:14.699Z",
  "devdoc": {
    "kind": "dev",
    "methods": {
      "check_challenge(string,string)": {
        "params": {
          "category": "which category you'd like to mine, must exist in the Collectible's mapping  summary: challenge = \"apple\" target = \"cd25\" returns keccak256(\"apple\") == 0x??...??cd25 (so returns true)",
          "challenge": "is the challenge string, basically a random input of arbitrary length"
        }
      }
    },
    "version": 1
  },
  "userdoc": {
    "kind": "user",
    "methods": {},
    "version": 1
  }
}