{
  "contractName": "Collectible",
  "abi": [
    {
      "inputs": [],
      "stateMutability": "nonpayable",
      "type": "constructor"
    },
    {
      "anonymous": false,
      "inputs": [
        {
          "indexed": true,
          "internalType": "address",
          "name": "owner",
          "type": "address"
        },
        {
          "indexed": true,
          "internalType": "address",
          "name": "approved",
          "type": "address"
        },
        {
          "indexed": true,
          "internalType": "uint256",
          "name": "tokenId",
          "type": "uint256"
        }
      ],
      "name": "Approval",
      "type": "event"
    },
    {
      "anonymous": false,
      "inputs": [
        {
          "indexed": true,
          "internalType": "address",
          "name": "owner",
          "type": "address"
        },
        {
          "indexed": true,
          "internalType": "address",
          "name": "operator",
          "type": "address"
        },
        {
          "indexed": false,
          "internalType": "bool",
          "name": "approved",
          "type": "bool"
        }
      ],
      "name": "ApprovalForAll",
      "type": "event"
    },
    {
      "anonymous": false,
      "inputs": [
        {
          "indexed": true,
          "internalType": "address",
          "name": "from",
          "type": "address"
        },
        {
          "indexed": true,
          "internalType": "address",
          "name": "to",
          "type": "address"
        },
        {
          "indexed": true,
          "internalType": "uint256",
          "name": "tokenId",
          "type": "uint256"
        }
      ],
      "name": "Transfer",
      "type": "event"
    },
    {
      "anonymous": false,
      "inputs": [
        {
          "indexed": true,
          "internalType": "address",
          "name": "from",
          "type": "address"
        },
        {
          "indexed": false,
          "internalType": "address",
          "name": "to",
          "type": "address"
        }
      ],
      "name": "newDistributor",
      "type": "event"
    },
    {
      "inputs": [
        {
          "internalType": "address",
          "name": "to",
          "type": "address"
        },
        {
          "internalType": "uint256",
          "name": "tokenId",
          "type": "uint256"
        }
      ],
      "name": "approve",
      "outputs": [],
      "stateMutability": "nonpayable",
      "type": "function"
    },
    {
      "inputs": [
        {
          "internalType": "address",
          "name": "owner",
          "type": "address"
        }
      ],
      "name": "balanceOf",
      "outputs": [
        {
          "internalType": "uint256",
          "name": "",
          "type": "uint256"
        }
      ],
      "stateMutability": "view",
      "type": "function"
    },
    {
      "inputs": [],
      "name": "baseURI",
      "outputs": [
        {
          "internalType": "string",
          "name": "",
          "type": "string"
        }
      ],
      "stateMutability": "view",
      "type": "function"
    },
    {
      "inputs": [
        {
          "internalType": "uint256",
          "name": "tokenId",
          "type": "uint256"
        }
      ],
      "name": "getApproved",
      "outputs": [
        {
          "internalType": "address",
          "name": "",
          "type": "address"
        }
      ],
      "stateMutability": "view",
      "type": "function"
    },
    {
      "inputs": [
        {
          "internalType": "address",
          "name": "owner",
          "type": "address"
        },
        {
          "internalType": "address",
          "name": "operator",
          "type": "address"
        }
      ],
      "name": "isApprovedForAll",
      "outputs": [
        {
          "internalType": "bool",
          "name": "",
          "type": "bool"
        }
      ],
      "stateMutability": "view",
      "type": "function"
    },
    {
      "inputs": [],
      "name": "name",
      "outputs": [
        {
          "internalType": "string",
          "name": "",
          "type": "string"
        }
      ],
      "stateMutability": "view",
      "type": "function"
    },
    {
      "inputs": [
        {
          "internalType": "uint256",
          "name": "tokenId",
          "type": "uint256"
        }
      ],
      "name": "ownerOf",
      "outputs": [
        {
          "internalType": "address",
          "name": "",
          "type": "address"
        }
      ],
      "stateMutability": "view",
      "type": "function"
    },
    {
      "inputs": [
        {
          "internalType": "address",
          "name": "from",
          "type": "address"
        },
        {
          "internalType": "address",
          "name": "to",
          "type": "address"
        },
        {
          "internalType": "uint256",
          "name": "tokenId",
          "type": "uint256"
        }
      ],
      "name": "safeTransferFrom",
      "outputs": [],
      "stateMutability": "nonpayable",
      "type": "function"
    },
    {
      "inputs": [
        {
          "internalType": "address",
          "name": "from",
          "type": "address"
        },
        {
          "internalType": "address",
          "name": "to",
          "type": "address"
        },
        {
          "internalType": "uint256",
          "name": "tokenId",
          "type": "uint256"
        },
        {
          "internalType": "bytes",
          "name": "_data",
          "type": "bytes"
        }
      ],
      "name": "safeTransferFrom",
      "outputs": [],
      "stateMutability": "nonpayable",
      "type": "function"
    },
    {
      "inputs": [
        {
          "internalType": "address",
          "name": "operator",
          "type": "address"
        },
        {
          "internalType": "bool",
          "name": "approved",
          "type": "bool"
        }
      ],
      "name": "setApprovalForAll",
      "outputs": [],
      "stateMutability": "nonpayable",
      "type": "function"
    },
    {
      "inputs": [
        {
          "internalType": "bytes4",
          "name": "interfaceId",
          "type": "bytes4"
        }
      ],
      "name": "supportsInterface",
      "outputs": [
        {
          "internalType": "bool",
          "name": "",
          "type": "bool"
        }
      ],
      "stateMutability": "view",
      "type": "function"
    },
    {
      "inputs": [],
      "name": "symbol",
      "outputs": [
        {
          "internalType": "string",
          "name": "",
          "type": "string"
        }
      ],
      "stateMutability": "view",
      "type": "function"
    },
    {
      "inputs": [
        {
          "internalType": "uint256",
          "name": "index",
          "type": "uint256"
        }
      ],
      "name": "tokenByIndex",
      "outputs": [
        {
          "internalType": "uint256",
          "name": "",
          "type": "uint256"
        }
      ],
      "stateMutability": "view",
      "type": "function"
    },
    {
      "inputs": [
        {
          "internalType": "address",
          "name": "owner",
          "type": "address"
        },
        {
          "internalType": "uint256",
          "name": "index",
          "type": "uint256"
        }
      ],
      "name": "tokenOfOwnerByIndex",
      "outputs": [
        {
          "internalType": "uint256",
          "name": "",
          "type": "uint256"
        }
      ],
      "stateMutability": "view",
      "type": "function"
    },
    {
      "inputs": [
        {
          "internalType": "uint256",
          "name": "tokenId",
          "type": "uint256"
        }
      ],
      "name": "tokenURI",
      "outputs": [
        {
          "internalType": "string",
          "name": "",
          "type": "string"
        }
      ],
      "stateMutability": "view",
      "type": "function"
    },
    {
      "inputs": [],
      "name": "totalSupply",
      "outputs": [
        {
          "internalType": "uint256",
          "name": "",
          "type": "uint256"
        }
      ],
      "stateMutability": "view",
      "type": "function"
    },
    {
      "inputs": [
        {
          "internalType": "address",
          "name": "from",
          "type": "address"
        },
        {
          "internalType": "address",
          "name": "to",
          "type": "address"
        },
        {
          "internalType": "uint256",
          "name": "tokenId",
          "type": "uint256"
        }
      ],
      "name": "transferFrom",
      "outputs": [],
      "stateMutability": "nonpayable",
      "type": "function"
    },
    {
      "inputs": [
        {
          "internalType": "uint256",
          "name": "blueprint_id",
          "type": "uint256"
        },
        {
          "internalType": "uint256",
          "name": "tier_id",
          "type": "uint256"
        }
      ],
      "name": "getItemName",
      "outputs": [
        {
          "internalType": "string",
          "name": "",
          "type": "string"
        }
      ],
      "stateMutability": "view",
      "type": "function"
    },
    {
      "inputs": [
        {
          "internalType": "string",
          "name": "tier",
          "type": "string"
        },
        {
          "internalType": "uint256",
          "name": "exponent",
          "type": "uint256"
        }
      ],
      "name": "newTier",
      "outputs": [],
      "stateMutability": "nonpayable",
      "type": "function"
    },
    {
      "inputs": [
        {
          "internalType": "uint256",
          "name": "tier_id",
          "type": "uint256"
        },
        {
          "internalType": "uint256",
          "name": "max_supply",
          "type": "uint256"
        },
        {
          "internalType": "string",
          "name": "name",
          "type": "string"
        }
      ],
      "name": "addTierBlueprint",
      "outputs": [],
      "stateMutability": "nonpayable",
      "type": "function"
    },
    {
      "inputs": [
        {
          "internalType": "uint256",
          "name": "tier_id",
          "type": "uint256"
        }
      ],
      "name": "getTierItemsCount",
      "outputs": [
        {
          "internalType": "uint256",
          "name": "",
          "type": "uint256"
        }
      ],
      "stateMutability": "nonpayable",
      "type": "function"
    },
    {
      "inputs": [],
      "name": "getMasks",
      "outputs": [
        {
          "internalType": "uint256[]",
          "name": "",
          "type": "uint256[]"
        }
      ],
      "stateMutability": "view",
      "type": "function"
    },
    {
      "inputs": [
        {
          "internalType": "uint256",
          "name": "id",
          "type": "uint256"
        },
        {
          "internalType": "address",
          "name": "to",
          "type": "address"
        }
      ],
      "name": "mint",
      "outputs": [],
      "stateMutability": "nonpayable",
      "type": "function"
    },
    {
      "inputs": [
        {
          "internalType": "address",
          "name": "to",
          "type": "address"
        }
      ],
      "name": "transferDistributorRole",
      "outputs": [],
      "stateMutability": "nonpayable",
      "type": "function"
    }
  ],
  "bytecode": "0x60806040523480156200001157600080fd5b506040518060400160405280600b81526020017f436f6c6c65637469626c650000000000000000000000000000000000000000008152506040518060400160405280600381526020017f434c420000000000000000000000000000000000000000000000000000000000815250620000966301ffc9a760e01b620003a460201b60201c565b8160069080519060200190620000ae92919062000838565b508060079080519060200190620000c792919062000838565b50620000e06380ac58cd60e01b620003a460201b60201c565b620000f8635b5e139f60e01b620003a460201b60201c565b6200011063780e9d6360e01b620003a460201b60201c565b505033600a60006101000a81548173ffffffffffffffffffffffffffffffffffffffff021916908373ffffffffffffffffffffffffffffffffffffffff1602179055506200019b6040518060400160405280600681526020017f6e6f726d616c00000000000000000000000000000000000000000000000000008152506003620004ad60201b60201c565b50620001e46040518060400160405280600681526020017f636f6d6d6f6e00000000000000000000000000000000000000000000000000008152506004620004ad60201b60201c565b506200022d6040518060400160405280600881526020017f756e636f6d6d6f6e0000000000000000000000000000000000000000000000008152506005620004ad60201b60201c565b50620002766040518060400160405280600981526020017f4c6567656e6461727900000000000000000000000000000000000000000000008152506007620004ad60201b60201c565b50620002bf6040518060400160405280600681526020017f45786f74696300000000000000000000000000000000000000000000000000008152506008620004ad60201b60201c565b506200030a600360056040518060400160405280600581526020017f53776f72640000000000000000000000000000000000000000000000000000008152506200068960201b60201c565b62000354600360056040518060400160405280600781526020017f5069636b617865000000000000000000000000000000000000000000000000008152506200068960201b60201c565b6200039e600360056040518060400160405280600381526020017f41786500000000000000000000000000000000000000000000000000000000008152506200068960201b60201c565b62000912565b63ffffffff60e01b817bffffffffffffffffffffffffffffffffffffffffffffffffffffffff1916141562000441576040517f08c379a000000000000000000000000000000000000000000000000000000000815260040180806020018281038252601c8152602001807f4552433136353a20696e76616c696420696e746572666163652069640000000081525060200191505060405180910390fd5b6001600080837bffffffffffffffffffffffffffffffffffffffffffffffffffffffff19167bffffffffffffffffffffffffffffffffffffffffffffffffffffffff1916815260200190815260200160002060006101000a81548160ff02191690831515021790555050565b60008082118015620004c0575061010082105b62000517576040517f08c379a0000000000000000000000000000000000000000000000000000000008152600401808060200182810382526029815260200180620040a26029913960400191505060405180910390fd5b6000600b6000848152602001908152602001600020600001541462000588576040517f08c379a00000000000000000000000000000000000000000000000000000000081526004018080602001828103825260288152602001806200407a6028913960400191505060405180910390fd5b600015156200059f600c84620007e560201b60201c565b151514620005f9576040517f08c379a0000000000000000000000000000000000000000000000000000000008152600401808060200182810382526024815260200180620040cb6024913960400191505060405180910390fd5b62000603620008bf565b8381602001819052508281600001818152505080600b60008581526020019081526020016000206000820151816000015560208201518160010190805190602001906200065292919062000838565b50905050600c8390806001815401808255809150506001900390600052602060002001600090919091909150558291505092915050565b600a60009054906101000a900473ffffffffffffffffffffffffffffffffffffffff1673ffffffffffffffffffffffffffffffffffffffff163373ffffffffffffffffffffffffffffffffffffffff1614620006e457600080fd5b6000600b600085815260200190815260200160002060000154141562000756576040517f08c379a0000000000000000000000000000000000000000000000000000000008152600401808060200182810382526025815260200180620040556025913960400191505060405180910390fd5b62000760620008d9565b6040518060400160405280848152602001838152509050600e6000858152602001908152602001600020819080600181540180825580915050600190039060005260206000209060020201600090919091909150600082015181600001556020820151816001019080519060200190620007dc92919062000838565b50505050505050565b60008060005b84805490508110156200083057838582815481106200080657fe5b9060005260206000200154141562000822576001915062000830565b8080600101915050620007eb565b505092915050565b828054600181600116156101000203166002900490600052602060002090601f016020900481019282601f106200087b57805160ff1916838001178555620008ac565b82800160010185558215620008ac579182015b82811115620008ab5782518255916020019190600101906200088e565b5b509050620008bb9190620008f3565b5090565b604051806040016040528060008152602001606081525090565b604051806040016040528060008152602001606081525090565b5b808211156200090e576000816000905550600101620008f4565b5090565b61373380620009226000396000f3fe608060405234801561001057600080fd5b50600436106101585760003560e01c80636c0360eb116100c3578063b88d4fde1161007c578063b88d4fde146108b3578063bc385348146109b8578063c154eb3f14610a69578063c87b56dd14610aab578063e985e9c514610b52578063fd258be314610bcc57610158565b80636c0360eb1461067357806370a08231146106f657806394bf804d1461074e57806395d89b411461079c5780639c87833a1461081f578063a22cb4651461086357610158565b806322c5249a1161011557806322c5249a146103d657806323b872dd1461049b5780632f745c591461050957806342842e0e1461056b5780634f6ccce7146105d95780636352211e1461061b57610158565b806301ffc9a71461015d57806306fdde03146101c0578063073c20a314610243578063081812fc14610312578063095ea7b31461036a57806318160ddd146103b8575b600080fd5b6101a86004803603602081101561017357600080fd5b8101908080357bffffffffffffffffffffffffffffffffffffffffffffffffffffffff19169060200190929190505050610c2b565b60405180821515815260200191505060405180910390f35b6101c8610c92565b6040518080602001828103825283818151815260200191508051906020019080838360005b838110156102085780820151818401526020810190506101ed565b50505050905090810190601f1680156102355780820380516001836020036101000a031916815260200191505b509250505060405180910390f35b6103106004803603606081101561025957600080fd5b8101908080359060200190929190803590602001909291908035906020019064010000000081111561028a57600080fd5b82018360208201111561029c57600080fd5b803590602001918460018302840111640100000000831117156102be57600080fd5b91908080601f016020809104026020016040519081016040528093929190818152602001838380828437600081840152601f19601f820116905080830192505050505050509192919290505050610d34565b005b61033e6004803603602081101561032857600080fd5b8101908080359060200190929190505050610e89565b604051808273ffffffffffffffffffffffffffffffffffffffff16815260200191505060405180910390f35b6103b66004803603604081101561038057600080fd5b81019080803573ffffffffffffffffffffffffffffffffffffffff16906020019092919080359060200190929190505050610f24565b005b6103c0611068565b6040518082815260200191505060405180910390f35b610499600480360360408110156103ec57600080fd5b810190808035906020019064010000000081111561040957600080fd5b82018360208201111561041b57600080fd5b8035906020019184600183028401116401000000008311171561043d57600080fd5b91908080601f016020809104026020016040519081016040528093929190818152602001838380828437600081840152601f19601f82011690508083019250505050505050919291929080359060200190929190505050611079565b005b610507600480360360608110156104b157600080fd5b81019080803573ffffffffffffffffffffffffffffffffffffffff169060200190929190803573ffffffffffffffffffffffffffffffffffffffff169060200190929190803590602001909291905050506110e2565b005b6105556004803603604081101561051f57600080fd5b81019080803573ffffffffffffffffffffffffffffffffffffffff16906020019092919080359060200190929190505050611158565b6040518082815260200191505060405180910390f35b6105d76004803603606081101561058157600080fd5b81019080803573ffffffffffffffffffffffffffffffffffffffff169060200190929190803573ffffffffffffffffffffffffffffffffffffffff169060200190929190803590602001909291905050506111b3565b005b610605600480360360208110156105ef57600080fd5b81019080803590602001909291905050506111d3565b6040518082815260200191505060405180910390f35b6106476004803603602081101561063157600080fd5b81019080803590602001909291905050506111f6565b604051808273ffffffffffffffffffffffffffffffffffffffff16815260200191505060405180910390f35b61067b61122d565b6040518080602001828103825283818151815260200191508051906020019080838360005b838110156106bb5780820151818401526020810190506106a0565b50505050905090810190601f1680156106e85780820380516001836020036101000a031916815260200191505b509250505060405180910390f35b6107386004803603602081101561070c57600080fd5b81019080803573ffffffffffffffffffffffffffffffffffffffff1690602001909291905050506112cf565b6040518082815260200191505060405180910390f35b61079a6004803603604081101561076457600080fd5b8101908080359060200190929190803573ffffffffffffffffffffffffffffffffffffffff1690602001909291905050506113a4565b005b6107a461140c565b6040518080602001828103825283818151815260200191508051906020019080838360005b838110156107e45780820151818401526020810190506107c9565b50505050905090810190601f1680156108115780820380516001836020036101000a031916815260200191505b509250505060405180910390f35b6108616004803603602081101561083557600080fd5b81019080803573ffffffffffffffffffffffffffffffffffffffff1690602001909291905050506114ae565b005b6108b16004803603604081101561087957600080fd5b81019080803573ffffffffffffffffffffffffffffffffffffffff1690602001909291908035151590602001909291905050506115d2565b005b6109b6600480360360808110156108c957600080fd5b81019080803573ffffffffffffffffffffffffffffffffffffffff169060200190929190803573ffffffffffffffffffffffffffffffffffffffff169060200190929190803590602001909291908035906020019064010000000081111561093057600080fd5b82018360208201111561094257600080fd5b8035906020019184600183028401116401000000008311171561096457600080fd5b91908080601f016020809104026020016040519081016040528093929190818152602001838380828437600081840152601f19601f820116905080830192505050505050509192919290505050611788565b005b6109ee600480360360408110156109ce57600080fd5b810190808035906020019092919080359060200190929190505050611800565b6040518080602001828103825283818151815260200191508051906020019080838360005b83811015610a2e578082015181840152602081019050610a13565b50505050905090810190601f168015610a5b5780820380516001836020036101000a031916815260200191505b509250505060405180910390f35b610a9560048036036020811015610a7f57600080fd5b81019080803590602001909291905050506119ce565b6040518082815260200191505060405180910390f35b610ad760048036036020811015610ac157600080fd5b8101908080359060200190929190505050611a7a565b6040518080602001828103825283818151815260200191508051906020019080838360005b83811015610b17578082015181840152602081019050610afc565b50505050905090810190601f168015610b445780820380516001836020036101000a031916815260200191505b509250505060405180910390f35b610bb460048036036040811015610b6857600080fd5b81019080803573ffffffffffffffffffffffffffffffffffffffff169060200190929190803573ffffffffffffffffffffffffffffffffffffffff169060200190929190505050611d4b565b60405180821515815260200191505060405180910390f35b610bd4611ddf565b6040518080602001828103825283818151815260200191508051906020019060200280838360005b83811015610c17578082015181840152602081019050610bfc565b505050509050019250505060405180910390f35b6000806000837bffffffffffffffffffffffffffffffffffffffffffffffffffffffff19167bffffffffffffffffffffffffffffffffffffffffffffffffffffffff1916815260200190815260200160002060009054906101000a900460ff169050919050565b606060068054600181600116156101000203166002900480601f016020809104026020016040519081016040528092919081815260200182805460018160011615610100020316600290048015610d2a5780601f10610cff57610100808354040283529160200191610d2a565b820191906000526020600020905b815481529060010190602001808311610d0d57829003601f168201915b5050505050905090565b600a60009054906101000a900473ffffffffffffffffffffffffffffffffffffffff1673ffffffffffffffffffffffffffffffffffffffff163373ffffffffffffffffffffffffffffffffffffffff1614610d8e57600080fd5b6000600b6000858152602001908152602001600020600001541415610dfe576040517f08c379a00000000000000000000000000000000000000000000000000000000081526004018080602001828103825260258152602001806134436025913960400191505060405180910390fd5b610e0661331d565b6040518060400160405280848152602001838152509050600e6000858152602001908152602001600020819080600181540180825580915050600190039060005260206000209060020201600090919091909150600082015181600001556020820151816001019080519060200190610e80929190613337565b50505050505050565b6000610e9482611e37565b610ee9576040517f08c379a000000000000000000000000000000000000000000000000000000000815260040180806020018281038252602c8152602001806135b3602c913960400191505060405180910390fd5b6004600083815260200190815260200160002060009054906101000a900473ffffffffffffffffffffffffffffffffffffffff169050919050565b6000610f2f826111f6565b90508073ffffffffffffffffffffffffffffffffffffffff168373ffffffffffffffffffffffffffffffffffffffff161415610fb6576040517f08c379a000000000000000000000000000000000000000000000000000000000815260040180806020018281038252602181526020018061365f6021913960400191505060405180910390fd5b8073ffffffffffffffffffffffffffffffffffffffff16610fd5611e54565b73ffffffffffffffffffffffffffffffffffffffff161480611004575061100381610ffe611e54565b611d4b565b5b611059576040517f08c379a00000000000000000000000000000000000000000000000000000000081526004018080602001828103825260388152602001806135066038913960400191505060405180910390fd5b6110638383611e5c565b505050565b60006110746002611f15565b905090565b600a60009054906101000a900473ffffffffffffffffffffffffffffffffffffffff1673ffffffffffffffffffffffffffffffffffffffff163373ffffffffffffffffffffffffffffffffffffffff16146110d357600080fd5b6110dd8282611f2a565b505050565b6110f36110ed611e54565b826120f3565b611148576040517f08c379a00000000000000000000000000000000000000000000000000000000081526004018080602001828103825260318152602001806136806031913960400191505060405180910390fd5b6111538383836121e7565b505050565b60006111ab82600160008673ffffffffffffffffffffffffffffffffffffffff1673ffffffffffffffffffffffffffffffffffffffff16815260200190815260200160002061242a90919063ffffffff16565b905092915050565b6111ce83838360405180602001604052806000815250611788565b505050565b6000806111ea83600261244490919063ffffffff16565b50905080915050919050565b6000611226826040518060600160405280602981526020016135686029913960026124709092919063ffffffff16565b9050919050565b606060098054600181600116156101000203166002900480601f0160208091040260200160405190810160405280929190818152602001828054600181600116156101000203166002900480156112c55780601f1061129a576101008083540402835291602001916112c5565b820191906000526020600020905b8154815290600101906020018083116112a857829003601f168201915b5050505050905090565b60008073ffffffffffffffffffffffffffffffffffffffff168273ffffffffffffffffffffffffffffffffffffffff161415611356576040517f08c379a000000000000000000000000000000000000000000000000000000000815260040180806020018281038252602a81526020018061353e602a913960400191505060405180910390fd5b61139d600160008473ffffffffffffffffffffffffffffffffffffffff1673ffffffffffffffffffffffffffffffffffffffff16815260200190815260200160002061248f565b9050919050565b600a60009054906101000a900473ffffffffffffffffffffffffffffffffffffffff1673ffffffffffffffffffffffffffffffffffffffff163373ffffffffffffffffffffffffffffffffffffffff16146113fe57600080fd5b61140881836124a4565b5050565b606060078054600181600116156101000203166002900480601f0160208091040260200160405190810160405280929190818152602001828054600181600116156101000203166002900480156114a45780601f10611479576101008083540402835291602001916114a4565b820191906000526020600020905b81548152906001019060200180831161148757829003601f168201915b5050505050905090565b600a60009054906101000a900473ffffffffffffffffffffffffffffffffffffffff1673ffffffffffffffffffffffffffffffffffffffff163373ffffffffffffffffffffffffffffffffffffffff161461150857600080fd5b80600a60006101000a81548173ffffffffffffffffffffffffffffffffffffffff021916908373ffffffffffffffffffffffffffffffffffffffff1602179055503373ffffffffffffffffffffffffffffffffffffffff167f27f66a03e21fb5aaa3a59d5be027a4ae7a6997a1092287a3474c7c280b95a68d600a60009054906101000a900473ffffffffffffffffffffffffffffffffffffffff16604051808273ffffffffffffffffffffffffffffffffffffffff16815260200191505060405180910390a250565b6115da611e54565b73ffffffffffffffffffffffffffffffffffffffff168273ffffffffffffffffffffffffffffffffffffffff16141561167b576040517f08c379a00000000000000000000000000000000000000000000000000000000081526004018080602001828103825260198152602001807f4552433732313a20617070726f766520746f2063616c6c65720000000000000081525060200191505060405180910390fd5b8060056000611688611e54565b73ffffffffffffffffffffffffffffffffffffffff1673ffffffffffffffffffffffffffffffffffffffff16815260200190815260200160002060008473ffffffffffffffffffffffffffffffffffffffff1673ffffffffffffffffffffffffffffffffffffffff16815260200190815260200160002060006101000a81548160ff0219169083151502179055508173ffffffffffffffffffffffffffffffffffffffff16611735611e54565b73ffffffffffffffffffffffffffffffffffffffff167f17307eab39ab6107e8899845ad3d59bd9653f200f220920489ca2b5937696c318360405180821515815260200191505060405180910390a35050565b611799611793611e54565b836120f3565b6117ee576040517f08c379a00000000000000000000000000000000000000000000000000000000081526004018080602001828103825260318152602001806136806031913960400191505060405180910390fd5b6117fa848484846124c2565b50505050565b60606000600b600084815260200190815260200160002060000154141561188f576040517f08c379a00000000000000000000000000000000000000000000000000000000081526004018080602001828103825260188152602001807f54686973207469657220646f65736e277420657869737421000000000000000081525060200191505060405180910390fd5b82600e60008481526020019081526020016000208054905010156118fe576040517f08c379a00000000000000000000000000000000000000000000000000000000081526004018080602001828103825260288152602001806134686028913960400191505060405180910390fd5b600e6000838152602001908152602001600020838154811061191c57fe5b90600052602060002090600202016001018054600181600116156101000203166002900480601f0160208091040260200160405190810160405280929190818152602001828054600181600116156101000203166002900480156119c15780601f10611996576101008083540402835291602001916119c1565b820191906000526020600020905b8154815290600101906020018083116119a457829003601f168201915b5050505050905092915050565b600080600b6000848152602001908152602001600020600001541415611a5c576040517f08c379a00000000000000000000000000000000000000000000000000000000081526004018080602001828103825260188152602001807f54686973207469657220646f65736e277420657869737421000000000000000081525060200191505060405180910390fd5b600e6000838152602001908152602001600020805490509050919050565b6060611a8582611e37565b611ada576040517f08c379a000000000000000000000000000000000000000000000000000000000815260040180806020018281038252602f815260200180613608602f913960400191505060405180910390fd5b6060600860008481526020019081526020016000208054600181600116156101000203166002900480601f016020809104026020016040519081016040528092919081815260200182805460018160011615610100020316600290048015611b835780601f10611b5857610100808354040283529160200191611b83565b820191906000526020600020905b815481529060010190602001808311611b6657829003601f168201915b505050505090506060611b9461122d565b9050600081511415611baa578192505050611d46565b600082511115611c7b5780826040516020018083805190602001908083835b60208310611bec5780518252602082019150602081019050602083039250611bc9565b6001836020036101000a03801982511681845116808217855250505050505090500182805190602001908083835b60208310611c3d5780518252602082019150602081019050602083039250611c1a565b6001836020036101000a0380198251168184511680821785525050505050509050019250505060405160208183030381529060405292505050611d46565b80611c8585612534565b6040516020018083805190602001908083835b60208310611cbb5780518252602082019150602081019050602083039250611c98565b6001836020036101000a03801982511681845116808217855250505050505090500182805190602001908083835b60208310611d0c5780518252602082019150602081019050602083039250611ce9565b6001836020036101000a03801982511681845116808217855250505050505090500192505050604051602081830303815290604052925050505b919050565b6000600560008473ffffffffffffffffffffffffffffffffffffffff1673ffffffffffffffffffffffffffffffffffffffff16815260200190815260200160002060008373ffffffffffffffffffffffffffffffffffffffff1673ffffffffffffffffffffffffffffffffffffffff16815260200190815260200160002060009054906101000a900460ff16905092915050565b6060600c805480602002602001604051908101604052809291908181526020018280548015611e2d57602002820191906000526020600020905b815481526020019060010190808311611e19575b5050505050905090565b6000611e4d82600261267b90919063ffffffff16565b9050919050565b600033905090565b816004600083815260200190815260200160002060006101000a81548173ffffffffffffffffffffffffffffffffffffffff021916908373ffffffffffffffffffffffffffffffffffffffff160217905550808273ffffffffffffffffffffffffffffffffffffffff16611ecf836111f6565b73ffffffffffffffffffffffffffffffffffffffff167f8c5be1e5ebec7d5bd14f71427d1e84f3dd0314c0f7b2291e5b200ac8c7c3b92560405160405180910390a45050565b6000611f2382600001612695565b9050919050565b60008082118015611f3c575061010082105b611f91576040517f08c379a00000000000000000000000000000000000000000000000000000000081526004018080602001828103825260298152602001806136b16029913960400191505060405180910390fd5b6000600b60008481526020019081526020016000206000015414612000576040517f08c379a00000000000000000000000000000000000000000000000000000000081526004018080602001828103825260288152602001806136376028913960400191505060405180910390fd5b6000151561200f600c846126a6565b151514612067576040517f08c379a00000000000000000000000000000000000000000000000000000000081526004018080602001828103825260248152602001806136da6024913960400191505060405180910390fd5b61206f6133b7565b8381602001819052508281600001818152505080600b60008581526020019081526020016000206000820151816000015560208201518160010190805190602001906120bc929190613337565b50905050600c8390806001815401808255809150506001900390600052602060002001600090919091909150558291505092915050565b60006120fe82611e37565b612153576040517f08c379a000000000000000000000000000000000000000000000000000000000815260040180806020018281038252602c8152602001806134da602c913960400191505060405180910390fd5b600061215e836111f6565b90508073ffffffffffffffffffffffffffffffffffffffff168473ffffffffffffffffffffffffffffffffffffffff1614806121cd57508373ffffffffffffffffffffffffffffffffffffffff166121b584610e89565b73ffffffffffffffffffffffffffffffffffffffff16145b806121de57506121dd8185611d4b565b5b91505092915050565b8273ffffffffffffffffffffffffffffffffffffffff16612207826111f6565b73ffffffffffffffffffffffffffffffffffffffff1614612273576040517f08c379a00000000000000000000000000000000000000000000000000000000081526004018080602001828103825260298152602001806135df6029913960400191505060405180910390fd5b600073ffffffffffffffffffffffffffffffffffffffff168273ffffffffffffffffffffffffffffffffffffffff1614156122f9576040517f08c379a00000000000000000000000000000000000000000000000000000000081526004018080602001828103825260248152602001806134906024913960400191505060405180910390fd5b6123048383836126f4565b61230f600082611e5c565b61236081600160008673ffffffffffffffffffffffffffffffffffffffff1673ffffffffffffffffffffffffffffffffffffffff1681526020019081526020016000206126f990919063ffffffff16565b506123b281600160008573ffffffffffffffffffffffffffffffffffffffff1673ffffffffffffffffffffffffffffffffffffffff16815260200190815260200160002061271390919063ffffffff16565b506123c98183600261272d9092919063ffffffff16565b50808273ffffffffffffffffffffffffffffffffffffffff168473ffffffffffffffffffffffffffffffffffffffff167fddf252ad1be2c89b69c2b068fc378daa952ba7f163c4a11628f55a4df523b3ef60405160405180910390a4505050565b60006124398360000183612762565b60001c905092915050565b60008060008061245786600001866127e5565b915091508160001c8160001c9350935050509250929050565b6000612483846000018460001b8461287e565b60001c90509392505050565b600061249d82600001612974565b9050919050565b6124be828260405180602001604052806000815250612985565b5050565b6124cd8484846121e7565b6124d9848484846129f6565b61252e576040517f08c379a00000000000000000000000000000000000000000000000000000000081526004018080602001828103825260328152602001806134116032913960400191505060405180910390fd5b50505050565b6060600082141561257c576040518060400160405280600181526020017f30000000000000000000000000000000000000000000000000000000000000008152509050612676565b600082905060005b600082146125a6578080600101915050600a828161259e57fe5b049150612584565b60608167ffffffffffffffff811180156125bf57600080fd5b506040519080825280601f01601f1916602001820160405280156125f25781602001600182028036833780820191505090505b50905060006001830390508593505b6000841461266e57600a848161261357fe5b0660300160f81b8282806001900393508151811061262d57fe5b60200101907effffffffffffffffffffffffffffffffffffffffffffffffffffffffffffff1916908160001a905350600a848161266657fe5b049350612601565b819450505050505b919050565b600061268d836000018360001b612c0f565b905092915050565b600081600001805490509050919050565b60008060005b84805490508110156126ec57838582815481106126c557fe5b906000526020600020015414156126df57600191506126ec565b80806001019150506126ac565b505092915050565b505050565b600061270b836000018360001b612c32565b905092915050565b6000612725836000018360001b612d1a565b905092915050565b6000612759846000018460001b8473ffffffffffffffffffffffffffffffffffffffff1660001b612d8a565b90509392505050565b6000818360000180549050116127c3576040517f08c379a00000000000000000000000000000000000000000000000000000000081526004018080602001828103825260228152602001806133ef6022913960400191505060405180910390fd5b8260000182815481106127d257fe5b9060005260206000200154905092915050565b60008082846000018054905011612847576040517f08c379a00000000000000000000000000000000000000000000000000000000081526004018080602001828103825260228152602001806135916022913960400191505060405180910390fd5b600084600001848154811061285857fe5b906000526020600020906002020190508060000154816001015492509250509250929050565b60008084600101600085815260200190815260200160002054905060008114158390612945576040517f08c379a00000000000000000000000000000000000000000000000000000000081526004018080602001828103825283818151815260200191508051906020019080838360005b8381101561290a5780820151818401526020810190506128ef565b50505050905090810190601f1680156129375780820380516001836020036101000a031916815260200191505b509250505060405180910390fd5b5084600001600182038154811061295857fe5b9060005260206000209060020201600101549150509392505050565b600081600001805490509050919050565b61298f8383612e66565b61299c60008484846129f6565b6129f1576040517f08c379a00000000000000000000000000000000000000000000000000000000081526004018080602001828103825260328152602001806134116032913960400191505060405180910390fd5b505050565b6000612a178473ffffffffffffffffffffffffffffffffffffffff1661305a565b612a245760019050612c07565b6060612b8e63150b7a0260e01b612a39611e54565b888787604051602401808573ffffffffffffffffffffffffffffffffffffffff1681526020018473ffffffffffffffffffffffffffffffffffffffff16815260200183815260200180602001828103825283818151815260200191508051906020019080838360005b83811015612abd578082015181840152602081019050612aa2565b50505050905090810190601f168015612aea5780820380516001836020036101000a031916815260200191505b5095505050505050604051602081830303815290604052907bffffffffffffffffffffffffffffffffffffffffffffffffffffffff19166020820180517bffffffffffffffffffffffffffffffffffffffffffffffffffffffff8381831617835250505050604051806060016040528060328152602001613411603291398773ffffffffffffffffffffffffffffffffffffffff1661306d9092919063ffffffff16565b90506000818060200190516020811015612ba757600080fd5b8101908080519060200190929190505050905063150b7a0260e01b7bffffffffffffffffffffffffffffffffffffffffffffffffffffffff1916817bffffffffffffffffffffffffffffffffffffffffffffffffffffffff191614925050505b949350505050565b600080836001016000848152602001908152602001600020541415905092915050565b60008083600101600084815260200190815260200160002054905060008114612d0e5760006001820390506000600186600001805490500390506000866000018281548110612c7d57fe5b9060005260206000200154905080876000018481548110612c9a57fe5b9060005260206000200181905550600183018760010160008381526020019081526020016000208190555086600001805480612cd257fe5b60019003818190600052602060002001600090559055866001016000878152602001908152602001600020600090556001945050505050612d14565b60009150505b92915050565b6000612d268383613085565b612d7f578260000182908060018154018082558091505060019003906000526020600020016000909190919091505582600001805490508360010160008481526020019081526020016000208190555060019050612d84565b600090505b92915050565b6000808460010160008581526020019081526020016000205490506000811415612e3157846000016040518060400160405280868152602001858152509080600181540180825580915050600190039060005260206000209060020201600090919091909150600082015181600001556020820151816001015550508460000180549050856001016000868152602001908152602001600020819055506001915050612e5f565b82856000016001830381548110612e4457fe5b90600052602060002090600202016001018190555060009150505b9392505050565b600073ffffffffffffffffffffffffffffffffffffffff168273ffffffffffffffffffffffffffffffffffffffff161415612f09576040517f08c379a00000000000000000000000000000000000000000000000000000000081526004018080602001828103825260208152602001807f4552433732313a206d696e7420746f20746865207a65726f206164647265737381525060200191505060405180910390fd5b612f1281611e37565b15612f85576040517f08c379a000000000000000000000000000000000000000000000000000000000815260040180806020018281038252601c8152602001807f4552433732313a20746f6b656e20616c7265616479206d696e7465640000000081525060200191505060405180910390fd5b612f91600083836126f4565b612fe281600160008573ffffffffffffffffffffffffffffffffffffffff1673ffffffffffffffffffffffffffffffffffffffff16815260200190815260200160002061271390919063ffffffff16565b50612ff98183600261272d9092919063ffffffff16565b50808273ffffffffffffffffffffffffffffffffffffffff16600073ffffffffffffffffffffffffffffffffffffffff167fddf252ad1be2c89b69c2b068fc378daa952ba7f163c4a11628f55a4df523b3ef60405160405180910390a45050565b600080823b905060008111915050919050565b606061307c84846000856130a8565b90509392505050565b600080836001016000848152602001908152602001600020541415905092915050565b606082471015613103576040517f08c379a00000000000000000000000000000000000000000000000000000000081526004018080602001828103825260268152602001806134b46026913960400191505060405180910390fd5b61310c8561305a565b61317e576040517f08c379a000000000000000000000000000000000000000000000000000000000815260040180806020018281038252601d8152602001807f416464726573733a2063616c6c20746f206e6f6e2d636f6e747261637400000081525060200191505060405180910390fd5b600060608673ffffffffffffffffffffffffffffffffffffffff1685876040518082805190602001908083835b602083106131ce57805182526020820191506020810190506020830392506131ab565b6001836020036101000a03801982511681845116808217855250505050505090500191505060006040518083038185875af1925050503d8060008114613230576040519150601f19603f3d011682016040523d82523d6000602084013e613235565b606091505b5091509150613245828286613251565b92505050949350505050565b6060831561326157829050613316565b6000835111156132745782518084602001fd5b816040517f08c379a00000000000000000000000000000000000000000000000000000000081526004018080602001828103825283818151815260200191508051906020019080838360005b838110156132db5780820151818401526020810190506132c0565b50505050905090810190601f1680156133085780820380516001836020036101000a031916815260200191505b509250505060405180910390fd5b9392505050565b604051806040016040528060008152602001606081525090565b828054600181600116156101000203166002900490600052602060002090601f016020900481019282601f1061337857805160ff19168380011785556133a6565b828001600101855582156133a6579182015b828111156133a557825182559160200191906001019061338a565b5b5090506133b391906133d1565b5090565b604051806040016040528060008152602001606081525090565b5b808211156133ea5760008160009055506001016133d2565b509056fe456e756d657261626c655365743a20696e646578206f7574206f6620626f756e64734552433732313a207472616e7366657220746f206e6f6e20455243373231526563656976657220696d706c656d656e746572416464696e6720426c75655072696e7420746f206e6f6e6578697374656e742074696572215468657265206973206e6f207375636820626c75657072696e7420696e20746869732074696572214552433732313a207472616e7366657220746f20746865207a65726f2061646472657373416464726573733a20696e73756666696369656e742062616c616e636520666f722063616c6c4552433732313a206f70657261746f7220717565727920666f72206e6f6e6578697374656e7420746f6b656e4552433732313a20617070726f76652063616c6c6572206973206e6f74206f776e6572206e6f7220617070726f76656420666f7220616c6c4552433732313a2062616c616e636520717565727920666f7220746865207a65726f20616464726573734552433732313a206f776e657220717565727920666f72206e6f6e6578697374656e7420746f6b656e456e756d657261626c654d61703a20696e646578206f7574206f6620626f756e64734552433732313a20617070726f76656420717565727920666f72206e6f6e6578697374656e7420746f6b656e4552433732313a207472616e73666572206f6620746f6b656e2074686174206973206e6f74206f776e4552433732314d657461646174613a2055524920717565727920666f72206e6f6e6578697374656e7420746f6b656e5468697320746965722065786973747320616e6420616c7265616479206861732061206d61736b2e4552433732313a20617070726f76616c20746f2063757272656e74206f776e65724552433732313a207472616e736665722063616c6c6572206973206e6f74206f776e6572206e6f7220617070726f766564506c6561736520737065636966792061206e756d626572206265747765656e203020616e64203235365468697320697320616c72656164792061206b6e6f776e207261726974792076616c7565a2646970667358221220b25c7952c0b36219ccafefd199b9252f78a12c399121d13bb3054e3f50d2b2d964736f6c63430007000033416464696e6720426c75655072696e7420746f206e6f6e6578697374656e742074696572215468697320746965722065786973747320616e6420616c7265616479206861732061206d61736b2e506c6561736520737065636966792061206e756d626572206265747765656e203020616e64203235365468697320697320616c72656164792061206b6e6f776e207261726974792076616c7565",
  "immutableReferences": {},
  "source": "//SPDX-License-Identifier: MIT\npragma solidity >= 0.6.0 <0.8.0;\n\nimport \"@openzeppelin/contracts/token/ERC721/ERC721.sol\";\nimport \"@openzeppelin/contracts/utils/EnumerableSet.sol\";\nimport {CollectibleUtils as ut} from \"./utils.sol\";\n\n/**\n * @title Mining NFT tokens and introducing rarity\n * @author Robbe Louwet\n * \n\n a tier is unique as well as its mask\n a tier's mask is the amount of trailing 1's, it signifies the odds of mining that tier\n e.g. mask of 111 (or \"3\" -> 2^3 - 1) tells that there is a 1/7 chance to mine this tier (!= odds to mine an item in this tier)\n tier             => challenge mask               -> odds\n\n \"normal\"         => ?                            -> 93% (1 - all other odds)\n \"common\"         => 0xF      OR           1111   -> 1/15\n \"uncommon\"       => 0x1F     OR         1 1111   -> 1/31\n \"Legendary\"      => 0x3F     OR       111 1111   -> 1/127\n \"Exotic\"         => 0xFF     OR      1111 1111   -> 1/255\n */\ncontract Collectible is ERC721 {\n\n    address distributor;\n\n    event newDistributor(address indexed from, address to);\n\n    // tier_id aka tier mask => Tier\n    mapping(uint => ut.Tier) tiers;\n    uint[] tier_ids; // [2, 3, ...], means tiers with mask [11, 111, ...]\n\n    // contains all not yet mined items in circulation.\n    // trailing mask bits of the key (item_id) signify the tier\n    //\n    // item_id => Item\n    mapping(uint => ut.Item) items;\n\n    // structs can't yet contain an array\n    // tier_id => ItemBlueprint[]\n    mapping(uint => ut.ItemBlueprint[]) tier_blueprints;\n\n    modifier isDistributor() {\n        require(msg.sender == distributor);\n        _;\n    }\n\n    constructor() ERC721(\"Collectible\", \"CLB\"){\n        distributor = msg.sender;\n\n        // it's cheaper to store the exponent than to later on calculate expensive log2(x) operations\n        addTier(\"normal\", 3); //the challenge mask is 2^3-1\n        addTier(\"common\", 4);\n        addTier(\"uncommon\", 5);\n        addTier(\"Legendary\", 7);\n        addTier(\"Exotic\", 8);\n\n        addTierBlueprint(3, 5, \"Sword\");\n        addTierBlueprint(3, 5, \"Pickaxe\");\n        addTierBlueprint(3, 5, \"Axe\");\n\n    }\n\n    function getItemName(uint blueprint_id, uint tier_id) public view returns (string memory) {\n        require(tiers[tier_id].id != 0, \"This tier doesn't exist!\");\n        require(tier_blueprints[tier_id].length >= blueprint_id, \"There is no such blueprint in this tier!\");\n\n        return tier_blueprints[tier_id][blueprint_id].name;\n    }\n\n    /**\n     * the total oods will be 1 out of 2^(exponent) - 1\n     * so if exponent is 3, the total odds of mining this tier is 2^3 - 1 = 1 out of 7\n     */\n    function newTier(string memory tier, uint exponent) public isDistributor {\n        addTier(tier, exponent);\n    }\n\n    function addTier(string memory tier, uint id) private returns (uint) {\n        require(id >0 && id < 256, \"Please specify a number between 0 and 256\");\n\n        require(tiers[id].id == 0, \"This tier exists and already has a mask.\");\n        //require(!ut.contains_string(tier_names, tier), \"Tier is already a known tier.\");\n\n        //require(keccak256(abi.encodePacked(dd_tier[id])) == keccak256(abi.encodePacked(\"\")), \"This rarity tier already exists\");\n        require(contains_int(tier_ids, id) == false, \"This is already a known rarity value\");\n\n        ut.Tier memory new_tier;\n        new_tier.name = tier;\n        new_tier.id = id;\n\n        tiers[id] = new_tier;\n        tier_ids.push(id);\n\n        return id;\n    }\n\n    function addTierBlueprint(uint tier_id, uint max_supply, string memory name) public isDistributor{\n        require(tiers[tier_id].id != 0, \"Adding BluePrint to nonexistent tier!\");\n        ut.ItemBlueprint memory bp = ut.ItemBlueprint(max_supply, name);\n        tier_blueprints[tier_id].push(bp);\n    }\n\n    function getTierItemsCount(uint tier_id) public returns (uint){\n        require(tiers[tier_id].id != 0, \"This tier doesn't exist!\");\n        return tier_blueprints[tier_id].length;\n    }\n\n    function getMasks() public view returns (uint[] memory) {\n        return tier_ids;\n    }\n\n    function mint(uint id, address to) public isDistributor {\n        _safeMint(to, id);\n    }\n\n    function transferDistributorRole(address to) public isDistributor {\n        distributor = to;\n        emit newDistributor(msg.sender, distributor);\n    }\n\n    function contains_string(string[] storage array, string memory target) private view returns(bool) {\n        for (uint256 index = 0; index < array.length; index++) {\n            if (keccak256(abi.encodePacked(array[index])) == keccak256(abi.encodePacked(target))) {\n                return true;\n            }\n        }\n        return false;\n    }\n\n    function contains_int(uint[] storage array, uint target) private view returns(bool) {\n        bool found;\n        for (uint256 index = 0; index < array.length; index++) {\n            if (array[index] == target) {\n                found = true;\n                break;\n            }\n        }\n    }\n}",
  "sourcePath": "/home/robbe/Desktop/Introducing Rarity with NFT/contracts/Collectible.sol",
  "compiler": {
    "name": "solc",
    "version": "0.7.0+commit.9e61f92b.Emscripten.clang"
  },
  "schemaVersion": "3.3.4",
  "updatedAt": "2021-03-31T16:16:41.834Z",
  "devdoc": {
    "author": "Robbe Louwet  a tier is unique as well as its mask a tier's mask is the amount of trailing 1's, it signifies the odds of mining that tier e.g. mask of 111 (or \"3\" -> 2^3 - 1) tells that there is a 1/7 chance to mine this tier (!= odds to mine an item in this tier) tier             => challenge mask               -> odds \"normal\"         => ?                            -> 93% (1 - all other odds) \"common\"         => 0xF      OR           1111   -> 1/15 \"uncommon\"       => 0x1F     OR         1 1111   -> 1/31 \"Legendary\"      => 0x3F     OR       111 1111   -> 1/127 \"Exotic\"         => 0xFF     OR      1111 1111   -> 1/255",
    "kind": "dev",
    "methods": {
      "approve(address,uint256)": {
        "details": "See {IERC721-approve}."
      },
      "balanceOf(address)": {
        "details": "See {IERC721-balanceOf}."
      },
      "baseURI()": {
        "details": "Returns the base URI set via {_setBaseURI}. This will be automatically added as a prefix in {tokenURI} to each token's URI, or to the token ID if no specific URI is set for that token ID."
      },
      "getApproved(uint256)": {
        "details": "See {IERC721-getApproved}."
      },
      "isApprovedForAll(address,address)": {
        "details": "See {IERC721-isApprovedForAll}."
      },
      "name()": {
        "details": "See {IERC721Metadata-name}."
      },
      "ownerOf(uint256)": {
        "details": "See {IERC721-ownerOf}."
      },
      "safeTransferFrom(address,address,uint256)": {
        "details": "See {IERC721-safeTransferFrom}."
      },
      "safeTransferFrom(address,address,uint256,bytes)": {
        "details": "See {IERC721-safeTransferFrom}."
      },
      "setApprovalForAll(address,bool)": {
        "details": "See {IERC721-setApprovalForAll}."
      },
      "supportsInterface(bytes4)": {
        "details": "See {IERC165-supportsInterface}. Time complexity O(1), guaranteed to always use less than 30 000 gas."
      },
      "symbol()": {
        "details": "See {IERC721Metadata-symbol}."
      },
      "tokenByIndex(uint256)": {
        "details": "See {IERC721Enumerable-tokenByIndex}."
      },
      "tokenOfOwnerByIndex(address,uint256)": {
        "details": "See {IERC721Enumerable-tokenOfOwnerByIndex}."
      },
      "tokenURI(uint256)": {
        "details": "See {IERC721Metadata-tokenURI}."
      },
      "totalSupply()": {
        "details": "See {IERC721Enumerable-totalSupply}."
      },
      "transferFrom(address,address,uint256)": {
        "details": "See {IERC721-transferFrom}."
      }
    },
    "title": "Mining NFT tokens and introducing rarity",
    "version": 1
  },
  "userdoc": {
    "kind": "user",
    "methods": {
      "newTier(string,uint256)": {
        "notice": "the total oods will be 1 out of 2^(exponent) - 1 so if exponent is 3, the total odds of mining this tier is 2^3 - 1 = 1 out of 7"
      }
    },
    "version": 1
  }
}