{
  "contractName": "Collectible",
  "abi": [
    {
      "inputs": [],
      "stateMutability": "nonpayable",
      "type": "constructor"
    },
    {
      "anonymous": false,
      "inputs": [
        {
          "indexed": true,
          "internalType": "address",
          "name": "owner",
          "type": "address"
        },
        {
          "indexed": true,
          "internalType": "address",
          "name": "approved",
          "type": "address"
        },
        {
          "indexed": true,
          "internalType": "uint256",
          "name": "tokenId",
          "type": "uint256"
        }
      ],
      "name": "Approval",
      "type": "event"
    },
    {
      "anonymous": false,
      "inputs": [
        {
          "indexed": true,
          "internalType": "address",
          "name": "owner",
          "type": "address"
        },
        {
          "indexed": true,
          "internalType": "address",
          "name": "operator",
          "type": "address"
        },
        {
          "indexed": false,
          "internalType": "bool",
          "name": "approved",
          "type": "bool"
        }
      ],
      "name": "ApprovalForAll",
      "type": "event"
    },
    {
      "anonymous": false,
      "inputs": [
        {
          "indexed": true,
          "internalType": "address",
          "name": "from",
          "type": "address"
        },
        {
          "indexed": true,
          "internalType": "address",
          "name": "to",
          "type": "address"
        },
        {
          "indexed": true,
          "internalType": "uint256",
          "name": "tokenId",
          "type": "uint256"
        }
      ],
      "name": "Transfer",
      "type": "event"
    },
    {
      "anonymous": false,
      "inputs": [
        {
          "indexed": true,
          "internalType": "address",
          "name": "user",
          "type": "address"
        },
        {
          "indexed": false,
          "internalType": "string",
          "name": "challenge",
          "type": "string"
        },
        {
          "indexed": false,
          "internalType": "uint256",
          "name": "blocknumber",
          "type": "uint256"
        },
        {
          "indexed": false,
          "internalType": "uint256",
          "name": "tier_blueprints_buffer_size",
          "type": "uint256"
        },
        {
          "indexed": false,
          "internalType": "uint256",
          "name": "tier_blueprints",
          "type": "uint256"
        },
        {
          "indexed": false,
          "internalType": "uint256",
          "name": "blueprint_max_supply",
          "type": "uint256"
        }
      ],
      "name": "minedSuccessfully",
      "type": "event"
    },
    {
      "anonymous": false,
      "inputs": [
        {
          "indexed": true,
          "internalType": "address",
          "name": "from",
          "type": "address"
        },
        {
          "indexed": false,
          "internalType": "address",
          "name": "to",
          "type": "address"
        }
      ],
      "name": "newOwner",
      "type": "event"
    },
    {
      "inputs": [
        {
          "internalType": "address",
          "name": "to",
          "type": "address"
        },
        {
          "internalType": "uint256",
          "name": "tokenId",
          "type": "uint256"
        }
      ],
      "name": "approve",
      "outputs": [],
      "stateMutability": "nonpayable",
      "type": "function"
    },
    {
      "inputs": [
        {
          "internalType": "address",
          "name": "owner",
          "type": "address"
        }
      ],
      "name": "balanceOf",
      "outputs": [
        {
          "internalType": "uint256",
          "name": "",
          "type": "uint256"
        }
      ],
      "stateMutability": "view",
      "type": "function"
    },
    {
      "inputs": [],
      "name": "baseURI",
      "outputs": [
        {
          "internalType": "string",
          "name": "",
          "type": "string"
        }
      ],
      "stateMutability": "view",
      "type": "function"
    },
    {
      "inputs": [
        {
          "internalType": "uint256",
          "name": "tokenId",
          "type": "uint256"
        }
      ],
      "name": "getApproved",
      "outputs": [
        {
          "internalType": "address",
          "name": "",
          "type": "address"
        }
      ],
      "stateMutability": "view",
      "type": "function"
    },
    {
      "inputs": [
        {
          "internalType": "address",
          "name": "owner",
          "type": "address"
        },
        {
          "internalType": "address",
          "name": "operator",
          "type": "address"
        }
      ],
      "name": "isApprovedForAll",
      "outputs": [
        {
          "internalType": "bool",
          "name": "",
          "type": "bool"
        }
      ],
      "stateMutability": "view",
      "type": "function"
    },
    {
      "inputs": [],
      "name": "name",
      "outputs": [
        {
          "internalType": "string",
          "name": "",
          "type": "string"
        }
      ],
      "stateMutability": "view",
      "type": "function"
    },
    {
      "inputs": [
        {
          "internalType": "uint256",
          "name": "tokenId",
          "type": "uint256"
        }
      ],
      "name": "ownerOf",
      "outputs": [
        {
          "internalType": "address",
          "name": "",
          "type": "address"
        }
      ],
      "stateMutability": "view",
      "type": "function"
    },
    {
      "inputs": [
        {
          "internalType": "address",
          "name": "from",
          "type": "address"
        },
        {
          "internalType": "address",
          "name": "to",
          "type": "address"
        },
        {
          "internalType": "uint256",
          "name": "tokenId",
          "type": "uint256"
        }
      ],
      "name": "safeTransferFrom",
      "outputs": [],
      "stateMutability": "nonpayable",
      "type": "function"
    },
    {
      "inputs": [
        {
          "internalType": "address",
          "name": "from",
          "type": "address"
        },
        {
          "internalType": "address",
          "name": "to",
          "type": "address"
        },
        {
          "internalType": "uint256",
          "name": "tokenId",
          "type": "uint256"
        },
        {
          "internalType": "bytes",
          "name": "_data",
          "type": "bytes"
        }
      ],
      "name": "safeTransferFrom",
      "outputs": [],
      "stateMutability": "nonpayable",
      "type": "function"
    },
    {
      "inputs": [
        {
          "internalType": "address",
          "name": "operator",
          "type": "address"
        },
        {
          "internalType": "bool",
          "name": "approved",
          "type": "bool"
        }
      ],
      "name": "setApprovalForAll",
      "outputs": [],
      "stateMutability": "nonpayable",
      "type": "function"
    },
    {
      "inputs": [
        {
          "internalType": "bytes4",
          "name": "interfaceId",
          "type": "bytes4"
        }
      ],
      "name": "supportsInterface",
      "outputs": [
        {
          "internalType": "bool",
          "name": "",
          "type": "bool"
        }
      ],
      "stateMutability": "view",
      "type": "function"
    },
    {
      "inputs": [],
      "name": "symbol",
      "outputs": [
        {
          "internalType": "string",
          "name": "",
          "type": "string"
        }
      ],
      "stateMutability": "view",
      "type": "function"
    },
    {
      "inputs": [
        {
          "internalType": "uint256",
          "name": "index",
          "type": "uint256"
        }
      ],
      "name": "tokenByIndex",
      "outputs": [
        {
          "internalType": "uint256",
          "name": "",
          "type": "uint256"
        }
      ],
      "stateMutability": "view",
      "type": "function"
    },
    {
      "inputs": [
        {
          "internalType": "address",
          "name": "owner",
          "type": "address"
        },
        {
          "internalType": "uint256",
          "name": "index",
          "type": "uint256"
        }
      ],
      "name": "tokenOfOwnerByIndex",
      "outputs": [
        {
          "internalType": "uint256",
          "name": "",
          "type": "uint256"
        }
      ],
      "stateMutability": "view",
      "type": "function"
    },
    {
      "inputs": [
        {
          "internalType": "uint256",
          "name": "tokenId",
          "type": "uint256"
        }
      ],
      "name": "tokenURI",
      "outputs": [
        {
          "internalType": "string",
          "name": "",
          "type": "string"
        }
      ],
      "stateMutability": "view",
      "type": "function"
    },
    {
      "inputs": [],
      "name": "totalSupply",
      "outputs": [
        {
          "internalType": "uint256",
          "name": "",
          "type": "uint256"
        }
      ],
      "stateMutability": "view",
      "type": "function"
    },
    {
      "inputs": [
        {
          "internalType": "address",
          "name": "from",
          "type": "address"
        },
        {
          "internalType": "address",
          "name": "to",
          "type": "address"
        },
        {
          "internalType": "uint256",
          "name": "tokenId",
          "type": "uint256"
        }
      ],
      "name": "transferFrom",
      "outputs": [],
      "stateMutability": "nonpayable",
      "type": "function"
    },
    {
      "inputs": [
        {
          "internalType": "string",
          "name": "challenge",
          "type": "string"
        }
      ],
      "name": "mine",
      "outputs": [],
      "stateMutability": "payable",
      "type": "function"
    },
    {
      "inputs": [
        {
          "internalType": "bytes32",
          "name": "_hash",
          "type": "bytes32"
        }
      ],
      "name": "find_present_tier",
      "outputs": [
        {
          "internalType": "uint256",
          "name": "longest_mask",
          "type": "uint256"
        }
      ],
      "stateMutability": "view",
      "type": "function"
    },
    {
      "inputs": [
        {
          "internalType": "uint256",
          "name": "blueprint_id",
          "type": "uint256"
        },
        {
          "internalType": "uint256",
          "name": "tier_id",
          "type": "uint256"
        }
      ],
      "name": "getItemName",
      "outputs": [
        {
          "internalType": "string",
          "name": "",
          "type": "string"
        }
      ],
      "stateMutability": "view",
      "type": "function"
    },
    {
      "inputs": [
        {
          "internalType": "string",
          "name": "tier",
          "type": "string"
        },
        {
          "internalType": "uint256",
          "name": "exponent",
          "type": "uint256"
        },
        {
          "internalType": "uint256",
          "name": "buffer_size",
          "type": "uint256"
        }
      ],
      "name": "newTier",
      "outputs": [],
      "stateMutability": "nonpayable",
      "type": "function"
    },
    {
      "inputs": [
        {
          "internalType": "uint256",
          "name": "tier_id",
          "type": "uint256"
        }
      ],
      "name": "getTierBPBufferSize",
      "outputs": [
        {
          "internalType": "uint256",
          "name": "",
          "type": "uint256"
        }
      ],
      "stateMutability": "nonpayable",
      "type": "function"
    },
    {
      "inputs": [
        {
          "internalType": "uint256",
          "name": "tier_id",
          "type": "uint256"
        },
        {
          "internalType": "uint256",
          "name": "max_supply",
          "type": "uint256"
        },
        {
          "internalType": "uint256",
          "name": "supply_buffer_size",
          "type": "uint256"
        },
        {
          "internalType": "string",
          "name": "name",
          "type": "string"
        }
      ],
      "name": "addTierBlueprint",
      "outputs": [],
      "stateMutability": "nonpayable",
      "type": "function"
    },
    {
      "inputs": [
        {
          "internalType": "uint256",
          "name": "tier_id",
          "type": "uint256"
        },
        {
          "internalType": "uint256",
          "name": "blueprint_id",
          "type": "uint256"
        }
      ],
      "name": "getBlueprintMaxSupply",
      "outputs": [
        {
          "internalType": "uint256",
          "name": "",
          "type": "uint256"
        }
      ],
      "stateMutability": "view",
      "type": "function"
    },
    {
      "inputs": [
        {
          "internalType": "uint256",
          "name": "tier_id",
          "type": "uint256"
        }
      ],
      "name": "getTierItemsCount",
      "outputs": [
        {
          "internalType": "uint256",
          "name": "",
          "type": "uint256"
        }
      ],
      "stateMutability": "nonpayable",
      "type": "function"
    },
    {
      "inputs": [
        {
          "internalType": "uint256",
          "name": "tier_id",
          "type": "uint256"
        }
      ],
      "name": "getTierBufferSize",
      "outputs": [
        {
          "internalType": "uint256",
          "name": "",
          "type": "uint256"
        }
      ],
      "stateMutability": "view",
      "type": "function"
    },
    {
      "inputs": [],
      "name": "getMasks",
      "outputs": [
        {
          "internalType": "uint256[]",
          "name": "",
          "type": "uint256[]"
        }
      ],
      "stateMutability": "view",
      "type": "function"
    },
    {
      "inputs": [
        {
          "internalType": "uint256",
          "name": "tier_id",
          "type": "uint256"
        },
        {
          "internalType": "uint256",
          "name": "blueprint_id",
          "type": "uint256"
        },
        {
          "internalType": "uint256",
          "name": "id",
          "type": "uint256"
        },
        {
          "internalType": "address",
          "name": "to",
          "type": "address"
        }
      ],
      "name": "mint",
      "outputs": [],
      "stateMutability": "nonpayable",
      "type": "function"
    },
    {
      "inputs": [
        {
          "internalType": "address",
          "name": "to",
          "type": "address"
        }
      ],
      "name": "transferOwnership",
      "outputs": [],
      "stateMutability": "nonpayable",
      "type": "function"
    }
  ],
  "bytecode": "0x60806040523480156200001157600080fd5b506040518060400160405280600b81526020017f436f6c6c65637469626c650000000000000000000000000000000000000000008152506040518060400160405280600381526020017f434c420000000000000000000000000000000000000000000000000000000000815250620000966301ffc9a760e01b6200015960201b60201c565b8160069080519060200190620000ae92919062000262565b508060079080519060200190620000c792919062000262565b50620000e06380ac58cd60e01b6200015960201b60201c565b620000f8635b5e139f60e01b6200015960201b60201c565b6200011063780e9d6360e01b6200015960201b60201c565b505033600a60006101000a81548173ffffffffffffffffffffffffffffffffffffffff021916908373ffffffffffffffffffffffffffffffffffffffff16021790555062000308565b63ffffffff60e01b817bffffffffffffffffffffffffffffffffffffffffffffffffffffffff19161415620001f6576040517f08c379a000000000000000000000000000000000000000000000000000000000815260040180806020018281038252601c8152602001807f4552433136353a20696e76616c696420696e746572666163652069640000000081525060200191505060405180910390fd5b6001600080837bffffffffffffffffffffffffffffffffffffffffffffffffffffffff19167bffffffffffffffffffffffffffffffffffffffffffffffffffffffff1916815260200190815260200160002060006101000a81548160ff02191690831515021790555050565b828054600181600116156101000203166002900490600052602060002090601f016020900481019282601f10620002a557805160ff1916838001178555620002d6565b82800160010185558215620002d6579182015b82811115620002d5578251825591602001919060010190620002b8565b5b509050620002e59190620002e9565b5090565b5b8082111562000304576000816000905550600101620002ea565b5090565b61463280620003186000396000f3fe6080604052600436106101c25760003560e01c80636c0360eb116100f7578063b88d4fde11610095578063c87b56dd11610064578063c87b56dd14610dfe578063e985e9c514610eb2578063f2fde38b14610f39578063fd258be314610f8a576101c2565b8063b88d4fde14610b90578063bc38534814610ca2578063c154eb3f14610d60578063c53206d314610daf576101c2565b8063841819df116100d1578063841819df1461090257806395d89b41146109bd5780639a76b40614610a4d578063a22cb46514610b33576101c2565b80636c0360eb146107be57806370a082311461084e57806371a906bd146108b3576101c2565b80632f745c59116101645780634f6ccce71161013e5780634f6ccce71461064c5780635e98001a1461069b5780636352211e146106ea578063643183bf1461074f576101c2565b80632f745c59146105095780633dbd063c1461057857806342842e0e146105d1576101c2565b8063095ea7b3116101a0578063095ea7b31461032c57806318160ddd146103875780631facd371146103b257806323b872dd1461048e576101c2565b806301ffc9a7146101c757806306fdde0314610237578063081812fc146102c7575b600080fd5b3480156101d357600080fd5b5061021f600480360360208110156101ea57600080fd5b8101908080357bffffffffffffffffffffffffffffffffffffffffffffffffffffffff19169060200190929190505050610ff6565b60405180821515815260200191505060405180910390f35b34801561024357600080fd5b5061024c61105d565b6040518080602001828103825283818151815260200191508051906020019080838360005b8381101561028c578082015181840152602081019050610271565b50505050905090810190601f1680156102b95780820380516001836020036101000a031916815260200191505b509250505060405180910390f35b3480156102d357600080fd5b50610300600480360360208110156102ea57600080fd5b81019080803590602001909291905050506110ff565b604051808273ffffffffffffffffffffffffffffffffffffffff16815260200191505060405180910390f35b34801561033857600080fd5b506103856004803603604081101561034f57600080fd5b81019080803573ffffffffffffffffffffffffffffffffffffffff1690602001909291908035906020019092919050505061119a565b005b34801561039357600080fd5b5061039c6112de565b6040518082815260200191505060405180910390f35b3480156103be57600080fd5b5061048c600480360360608110156103d557600080fd5b81019080803590602001906401000000008111156103f257600080fd5b82018360208201111561040457600080fd5b8035906020019184600183028401116401000000008311171561042657600080fd5b91908080601f016020809104026020016040519081016040528093929190818152602001838380828437600081840152601f19601f82011690508083019250505050505050919291929080359060200190929190803590602001909291905050506112ef565b005b34801561049a57600080fd5b50610507600480360360608110156104b157600080fd5b81019080803573ffffffffffffffffffffffffffffffffffffffff169060200190929190803573ffffffffffffffffffffffffffffffffffffffff1690602001909291908035906020019092919050505061135a565b005b34801561051557600080fd5b506105626004803603604081101561052c57600080fd5b81019080803573ffffffffffffffffffffffffffffffffffffffff169060200190929190803590602001909291905050506113d0565b6040518082815260200191505060405180910390f35b34801561058457600080fd5b506105bb6004803603604081101561059b57600080fd5b81019080803590602001909291908035906020019092919050505061142b565b6040518082815260200191505060405180910390f35b3480156105dd57600080fd5b5061064a600480360360608110156105f457600080fd5b81019080803573ffffffffffffffffffffffffffffffffffffffff169060200190929190803573ffffffffffffffffffffffffffffffffffffffff169060200190929190803590602001909291905050506114f0565b005b34801561065857600080fd5b506106856004803603602081101561066f57600080fd5b8101908080359060200190929190505050611510565b6040518082815260200191505060405180910390f35b3480156106a757600080fd5b506106d4600480360360208110156106be57600080fd5b8101908080359060200190929190505050611533565b6040518082815260200191505060405180910390f35b3480156106f657600080fd5b506107236004803603602081101561070d57600080fd5b81019080803590602001909291905050506115df565b604051808273ffffffffffffffffffffffffffffffffffffffff16815260200191505060405180910390f35b34801561075b57600080fd5b506107bc6004803603608081101561077257600080fd5b81019080803590602001909291908035906020019092919080359060200190929190803573ffffffffffffffffffffffffffffffffffffffff169060200190929190505050611616565b005b3480156107ca57600080fd5b506107d3611815565b6040518080602001828103825283818151815260200191508051906020019080838360005b838110156108135780820151818401526020810190506107f8565b50505050905090810190601f1680156108405780820380516001836020036101000a031916815260200191505b509250505060405180910390f35b34801561085a57600080fd5b5061089d6004803603602081101561087157600080fd5b81019080803573ffffffffffffffffffffffffffffffffffffffff1690602001909291905050506118b7565b6040518082815260200191505060405180910390f35b3480156108bf57600080fd5b506108ec600480360360208110156108d657600080fd5b810190808035906020019092919050505061198c565b6040518082815260200191505060405180910390f35b6109bb6004803603602081101561091857600080fd5b810190808035906020019064010000000081111561093557600080fd5b82018360208201111561094757600080fd5b8035906020019184600183028401116401000000008311171561096957600080fd5b91908080601f016020809104026020016040519081016040528093929190818152602001838380828437600081840152601f19601f820116905080830192505050505050509192919290505050611a4a565b005b3480156109c957600080fd5b506109d2611ce2565b6040518080602001828103825283818151815260200191508051906020019080838360005b83811015610a125780820151818401526020810190506109f7565b50505050905090810190601f168015610a3f5780820380516001836020036101000a031916815260200191505b509250505060405180910390f35b348015610a5957600080fd5b50610b3160048036036080811015610a7057600080fd5b8101908080359060200190929190803590602001909291908035906020019092919080359060200190640100000000811115610aab57600080fd5b820183602082011115610abd57600080fd5b80359060200191846001830284011164010000000083111715610adf57600080fd5b91908080601f016020809104026020016040519081016040528093929190818152602001838380828437600081840152601f19601f820116905080830192505050505050509192919290505050611d84565b005b348015610b3f57600080fd5b50610b8e60048036036040811015610b5657600080fd5b81019080803573ffffffffffffffffffffffffffffffffffffffff169060200190929190803515159060200190929190505050611fbd565b005b348015610b9c57600080fd5b50610ca060048036036080811015610bb357600080fd5b81019080803573ffffffffffffffffffffffffffffffffffffffff169060200190929190803573ffffffffffffffffffffffffffffffffffffffff1690602001909291908035906020019092919080359060200190640100000000811115610c1a57600080fd5b820183602082011115610c2c57600080fd5b80359060200191846001830284011164010000000083111715610c4e57600080fd5b91908080601f016020809104026020016040519081016040528093929190818152602001838380828437600081840152601f19601f820116905080830192505050505050509192919290505050612173565b005b348015610cae57600080fd5b50610ce560048036036040811015610cc557600080fd5b8101908080359060200190929190803590602001909291905050506121eb565b6040518080602001828103825283818151815260200191508051906020019080838360005b83811015610d25578082015181840152602081019050610d0a565b50505050905090810190601f168015610d525780820380516001836020036101000a031916815260200191505b509250505060405180910390f35b348015610d6c57600080fd5b50610d9960048036036020811015610d8357600080fd5b81019080803590602001909291905050506123b9565b6040518082815260200191505060405180910390f35b348015610dbb57600080fd5b50610de860048036036020811015610dd257600080fd5b8101908080359060200190929190505050612465565b6040518082815260200191505060405180910390f35b348015610e0a57600080fd5b50610e3760048036036020811015610e2157600080fd5b8101908080359060200190929190505050612511565b6040518080602001828103825283818151815260200191508051906020019080838360005b83811015610e77578082015181840152602081019050610e5c565b50505050905090810190601f168015610ea45780820380516001836020036101000a031916815260200191505b509250505060405180910390f35b348015610ebe57600080fd5b50610f2160048036036040811015610ed557600080fd5b81019080803573ffffffffffffffffffffffffffffffffffffffff169060200190929190803573ffffffffffffffffffffffffffffffffffffffff1690602001909291905050506127e2565b60405180821515815260200191505060405180910390f35b348015610f4557600080fd5b50610f8860048036036020811015610f5c57600080fd5b81019080803573ffffffffffffffffffffffffffffffffffffffff169060200190929190505050612876565b005b348015610f9657600080fd5b50610f9f61299a565b6040518080602001828103825283818151815260200191508051906020019060200280838360005b83811015610fe2578082015181840152602081019050610fc7565b505050509050019250505060405180910390f35b6000806000837bffffffffffffffffffffffffffffffffffffffffffffffffffffffff19167bffffffffffffffffffffffffffffffffffffffffffffffffffffffff1916815260200190815260200160002060009054906101000a900460ff169050919050565b606060068054600181600116156101000203166002900480601f0160208091040260200160405190810160405280929190818152602001828054600181600116156101000203166002900480156110f55780601f106110ca576101008083540402835291602001916110f5565b820191906000526020600020905b8154815290600101906020018083116110d857829003601f168201915b5050505050905090565b600061110a826129f2565b61115f576040517f08c379a000000000000000000000000000000000000000000000000000000000815260040180806020018281038252602c815260200180614472602c913960400191505060405180910390fd5b6004600083815260200190815260200160002060009054906101000a900473ffffffffffffffffffffffffffffffffffffffff169050919050565b60006111a5826115df565b90508073ffffffffffffffffffffffffffffffffffffffff168373ffffffffffffffffffffffffffffffffffffffff16141561122c576040517f08c379a000000000000000000000000000000000000000000000000000000000815260040180806020018281038252602181526020018061455e6021913960400191505060405180910390fd5b8073ffffffffffffffffffffffffffffffffffffffff1661124b612a0f565b73ffffffffffffffffffffffffffffffffffffffff16148061127a575061127981611274612a0f565b6127e2565b5b6112cf576040517f08c379a00000000000000000000000000000000000000000000000000000000081526004018080602001828103825260388152602001806143c56038913960400191505060405180910390fd5b6112d98383612a17565b505050565b60006112ea6002612ad0565b905090565b600a60009054906101000a900473ffffffffffffffffffffffffffffffffffffffff1673ffffffffffffffffffffffffffffffffffffffff163373ffffffffffffffffffffffffffffffffffffffff161461134957600080fd5b611354838383612ae5565b50505050565b61136b611365612a0f565b82612d66565b6113c0576040517f08c379a000000000000000000000000000000000000000000000000000000000815260040180806020018281038252603181526020018061457f6031913960400191505060405180910390fd5b6113cb838383612e5a565b505050565b600061142382600160008673ffffffffffffffffffffffffffffffffffffffff1673ffffffffffffffffffffffffffffffffffffffff16815260200190815260200160002061309d90919063ffffffff16565b905092915050565b600081600f600085815260200190815260200160002080549050116114b8576040517f08c379a000000000000000000000000000000000000000000000000000000000815260040180806020018281038252601b8152602001807f426c75657072696e7420494420646f65736e277420657869737421000000000081525060200191505060405180910390fd5b600f600084815260200190815260200160002082815481106114d657fe5b906000526020600020906003020160010154905092915050565b61150b83838360405180602001604052806000815250612173565b505050565b6000806115278360026130b790919063ffffffff16565b50905080915050919050565b600080600f60008481526020019081526020016000208054905014156115c1576040517f08c379a00000000000000000000000000000000000000000000000000000000081526004018080602001828103825260138152602001807f5469657220646f65736e2774206578697374210000000000000000000000000081525060200191505060405180910390fd5b600b6000838152602001908152602001600020600101549050919050565b600061160f826040518060600160405280602981526020016144276029913960026130e39092919063ffffffff16565b9050919050565b600a60009054906101000a900473ffffffffffffffffffffffffffffffffffffffff1673ffffffffffffffffffffffffffffffffffffffff163373ffffffffffffffffffffffffffffffffffffffff161461167057600080fd5b600061167b85611533565b9050600083861c905083821c9050611691614182565b600f600088815260200190815260200160002086815481106116af57fe5b90600052602060002090600302016040518060600160405290816000820154815260200160018201548152602001600282018054600181600116156101000203166002900480601f0160208091040260200160405190810160405280929190818152602001828054600181600116156101000203166002900480156117755780601f1061174a57610100808354040283529160200191611775565b820191906000526020600020905b81548152906001019060200180831161175857829003601f168201915b50505050508152505090506117886141a3565b6040518060800160405280836040015181526020018481526020018881526020018981525090506117b98587613102565b80600e600088815260200190815260200160002060008201518160000190805190602001906117e99291906141cb565b506020820151816001015560408201518160020155606082015181600301559050505050505050505050565b606060098054600181600116156101000203166002900480601f0160208091040260200160405190810160405280929190818152602001828054600181600116156101000203166002900480156118ad5780601f10611882576101008083540402835291602001916118ad565b820191906000526020600020905b81548152906001019060200180831161189057829003601f168201915b5050505050905090565b60008073ffffffffffffffffffffffffffffffffffffffff168273ffffffffffffffffffffffffffffffffffffffff16141561193e576040517f08c379a000000000000000000000000000000000000000000000000000000000815260040180806020018281038252602a8152602001806143fd602a913960400191505060405180910390fd5b611985600160008473ffffffffffffffffffffffffffffffffffffffff1673ffffffffffffffffffffffffffffffffffffffff168152602001908152602001600020613120565b9050919050565b6000606061199861299a565b90506000915060005b8151811015611a4357600060018383815181106119ba57fe5b602002602001015160020a03905060008383815181106119d657fe5b602002602001015161010003905060006119f1878484613135565b90506000801b81148015611a17575085858581518110611a0d57fe5b6020026020010151115b15611a3357848481518110611a2857fe5b602002602001015195505b50505080806001019150506119a1565b5050919050565b6060816040516020018082805190602001908083835b60208310611a835780518252602082019150602081019050602083039250611a60565b6001836020036101000a03801982511681845116808217855250505050505090500191505060405160208183030381529060405290506000818051906020012090506000611ad08261198c565b90506000811415611b49576040517f08c379a000000000000000000000000000000000000000000000000000000000815260040180806020018281038252601b8152602001807f446964206e6f7420637261636b20746865206368616c6c656e6765000000000081525060200191505060405180910390fd5b6000611b55838361314b565b90506000611b64848484613174565b9050611b6f816129f2565b15611be2576040517f08c379a00000000000000000000000000000000000000000000000000000000081526004018080602001828103825260148152602001807f546f6b656e20616c72656164792065786973747300000000000000000000000081525060200191505060405180910390fd5b611bee83838333611616565b3373ffffffffffffffffffffffffffffffffffffffff167f3d1184a51a6bac291f6282653538d00ee1d78cbd58de86489dbdf9facb71aec48743611c3187611533565b611c3a886123b9565b611c44898961142b565b6040518080602001868152602001858152602001848152602001838152602001828103825287818151815260200191508051906020019080838360005b83811015611c9c578082015181840152602081019050611c81565b50505050905090810190601f168015611cc95780820380516001836020036101000a031916815260200191505b50965050505050505060405180910390a2505050505050565b606060078054600181600116156101000203166002900480601f016020809104026020016040519081016040528092919081815260200182805460018160011615610100020316600290048015611d7a5780601f10611d4f57610100808354040283529160200191611d7a565b820191906000526020600020905b815481529060010190602001808311611d5d57829003601f168201915b5050505050905090565b600a60009054906101000a900473ffffffffffffffffffffffffffffffffffffffff1673ffffffffffffffffffffffffffffffffffffffff163373ffffffffffffffffffffffffffffffffffffffff1614611dde57600080fd5b6000600b6000868152602001908152602001600020600001541415611e4e576040517f08c379a00000000000000000000000000000000000000000000000000000000081526004018080602001828103825260258152602001806143026025913960400191505060405180910390fd5b8260018360020a031015611ead576040517f08c379a00000000000000000000000000000000000000000000000000000000081526004018080602001828103825260408152602001806144c76040913960400191505060405180910390fd5b6000600b6000868152602001908152602001600020600101549050600f60008681526020019081526020016000208054905060018260020a0311611f20576001600b60008781526020019081526020016000206001015401600b6000878152602001908152602001600020600101819055505b611f28614182565b6040518060600160405280858152602001868152602001848152509050600f600087815260200190815260200160002081908060018154018082558091505060019003906000526020600020906003020160009091909190915060008201518160000155602082015181600101556040820151816002019080519060200190611fb29291906141cb565b505050505050505050565b611fc5612a0f565b73ffffffffffffffffffffffffffffffffffffffff168273ffffffffffffffffffffffffffffffffffffffff161415612066576040517f08c379a00000000000000000000000000000000000000000000000000000000081526004018080602001828103825260198152602001807f4552433732313a20617070726f766520746f2063616c6c65720000000000000081525060200191505060405180910390fd5b8060056000612073612a0f565b73ffffffffffffffffffffffffffffffffffffffff1673ffffffffffffffffffffffffffffffffffffffff16815260200190815260200160002060008473ffffffffffffffffffffffffffffffffffffffff1673ffffffffffffffffffffffffffffffffffffffff16815260200190815260200160002060006101000a81548160ff0219169083151502179055508173ffffffffffffffffffffffffffffffffffffffff16612120612a0f565b73ffffffffffffffffffffffffffffffffffffffff167f17307eab39ab6107e8899845ad3d59bd9653f200f220920489ca2b5937696c318360405180821515815260200191505060405180910390a35050565b61218461217e612a0f565b83612d66565b6121d9576040517f08c379a000000000000000000000000000000000000000000000000000000000815260040180806020018281038252603181526020018061457f6031913960400191505060405180910390fd5b6121e5848484846131e9565b50505050565b60606000600b600084815260200190815260200160002060000154141561227a576040517f08c379a00000000000000000000000000000000000000000000000000000000081526004018080602001828103825260188152602001807f54686973207469657220646f65736e277420657869737421000000000000000081525060200191505060405180910390fd5b82600f60008481526020019081526020016000208054905010156122e9576040517f08c379a00000000000000000000000000000000000000000000000000000000081526004018080602001828103825260288152602001806143276028913960400191505060405180910390fd5b600f6000838152602001908152602001600020838154811061230757fe5b90600052602060002090600302016002018054600181600116156101000203166002900480601f0160208091040260200160405190810160405280929190818152602001828054600181600116156101000203166002900480156123ac5780601f10612381576101008083540402835291602001916123ac565b820191906000526020600020905b81548152906001019060200180831161238f57829003601f168201915b5050505050905092915050565b600080600b6000848152602001908152602001600020600001541415612447576040517f08c379a00000000000000000000000000000000000000000000000000000000081526004018080602001828103825260188152602001807f54686973207469657220646f65736e277420657869737421000000000000000081525060200191505060405180910390fd5b600f6000838152602001908152602001600020805490509050919050565b600080600b60008481526020019081526020016000206000015414156124f3576040517f08c379a00000000000000000000000000000000000000000000000000000000081526004018080602001828103825260138152602001807f5469657220646f65736e2774206578697374210000000000000000000000000081525060200191505060405180910390fd5b600b6000838152602001908152602001600020600101549050919050565b606061251c826129f2565b612571576040517f08c379a000000000000000000000000000000000000000000000000000000000815260040180806020018281038252602f815260200180614507602f913960400191505060405180910390fd5b6060600860008481526020019081526020016000208054600181600116156101000203166002900480601f01602080910402602001604051908101604052809291908181526020018280546001816001161561010002031660029004801561261a5780601f106125ef5761010080835404028352916020019161261a565b820191906000526020600020905b8154815290600101906020018083116125fd57829003601f168201915b50505050509050606061262b611815565b90506000815114156126415781925050506127dd565b6000825111156127125780826040516020018083805190602001908083835b602083106126835780518252602082019150602081019050602083039250612660565b6001836020036101000a03801982511681845116808217855250505050505090500182805190602001908083835b602083106126d457805182526020820191506020810190506020830392506126b1565b6001836020036101000a03801982511681845116808217855250505050505090500192505050604051602081830303815290604052925050506127dd565b8061271c8561325b565b6040516020018083805190602001908083835b60208310612752578051825260208201915060208101905060208303925061272f565b6001836020036101000a03801982511681845116808217855250505050505090500182805190602001908083835b602083106127a35780518252602082019150602081019050602083039250612780565b6001836020036101000a03801982511681845116808217855250505050505090500192505050604051602081830303815290604052925050505b919050565b6000600560008473ffffffffffffffffffffffffffffffffffffffff1673ffffffffffffffffffffffffffffffffffffffff16815260200190815260200160002060008373ffffffffffffffffffffffffffffffffffffffff1673ffffffffffffffffffffffffffffffffffffffff16815260200190815260200160002060009054906101000a900460ff16905092915050565b600a60009054906101000a900473ffffffffffffffffffffffffffffffffffffffff1673ffffffffffffffffffffffffffffffffffffffff163373ffffffffffffffffffffffffffffffffffffffff16146128d057600080fd5b80600a60006101000a81548173ffffffffffffffffffffffffffffffffffffffff021916908373ffffffffffffffffffffffffffffffffffffffff1602179055503373ffffffffffffffffffffffffffffffffffffffff167ff2c0d168bd136fe68a71ccac22bbe4c7276800e64533d1d1e24fcea5af07bc85600a60009054906101000a900473ffffffffffffffffffffffffffffffffffffffff16604051808273ffffffffffffffffffffffffffffffffffffffff16815260200191505060405180910390a250565b6060600c8054806020026020016040519081016040528092919081815260200182805480156129e857602002820191906000526020600020905b8154815260200190600101908083116129d4575b5050505050905090565b6000612a088260026133a290919063ffffffff16565b9050919050565b600033905090565b816004600083815260200190815260200160002060006101000a81548173ffffffffffffffffffffffffffffffffffffffff021916908373ffffffffffffffffffffffffffffffffffffffff160217905550808273ffffffffffffffffffffffffffffffffffffffff16612a8a836115df565b73ffffffffffffffffffffffffffffffffffffffff167f8c5be1e5ebec7d5bd14f71427d1e84f3dd0314c0f7b2291e5b200ac8c7c3b92560405160405180910390a45050565b6000612ade826000016133bc565b9050919050565b60008083118015612af7575061010083105b612b4c576040517f08c379a00000000000000000000000000000000000000000000000000000000081526004018080602001828103825260298152602001806145b06029913960400191505060405180910390fd5b6000600b60008581526020019081526020016000206000015414612bbb576040517f08c379a00000000000000000000000000000000000000000000000000000000081526004018080602001828103825260288152602001806145366028913960400191505060405180910390fd5b60001515612bca600c856133cd565b151514612c22576040517f08c379a00000000000000000000000000000000000000000000000000000000081526004018080602001828103825260248152602001806145d96024913960400191505060405180910390fd5b60001515612c31600d8661341b565b151514612c89576040517f08c379a000000000000000000000000000000000000000000000000000000000815260040180806020018281038252602481526020018061428a6024913960400191505060405180910390fd5b612c9161424b565b848160400181905250838160000181815250508281602001818152505080600b600086815260200190815260200160002060008201518160000155602082015181600101556040820151816002019080519060200190612cf29291906141cb565b50905050600c849080600181540180825580915050600190039060005260206000200160009091909190915055600d85908060018154018082558091505060019003906000526020600020016000909190919091509080519060200190612d5a9291906141cb565b50839150509392505050565b6000612d71826129f2565b612dc6576040517f08c379a000000000000000000000000000000000000000000000000000000000815260040180806020018281038252602c815260200180614399602c913960400191505060405180910390fd5b6000612dd1836115df565b90508073ffffffffffffffffffffffffffffffffffffffff168473ffffffffffffffffffffffffffffffffffffffff161480612e4057508373ffffffffffffffffffffffffffffffffffffffff16612e28846110ff565b73ffffffffffffffffffffffffffffffffffffffff16145b80612e515750612e5081856127e2565b5b91505092915050565b8273ffffffffffffffffffffffffffffffffffffffff16612e7a826115df565b73ffffffffffffffffffffffffffffffffffffffff1614612ee6576040517f08c379a000000000000000000000000000000000000000000000000000000000815260040180806020018281038252602981526020018061449e6029913960400191505060405180910390fd5b600073ffffffffffffffffffffffffffffffffffffffff168273ffffffffffffffffffffffffffffffffffffffff161415612f6c576040517f08c379a000000000000000000000000000000000000000000000000000000000815260040180806020018281038252602481526020018061434f6024913960400191505060405180910390fd5b612f77838383613559565b612f82600082612a17565b612fd381600160008673ffffffffffffffffffffffffffffffffffffffff1673ffffffffffffffffffffffffffffffffffffffff16815260200190815260200160002061355e90919063ffffffff16565b5061302581600160008573ffffffffffffffffffffffffffffffffffffffff1673ffffffffffffffffffffffffffffffffffffffff16815260200190815260200160002061357890919063ffffffff16565b5061303c818360026135929092919063ffffffff16565b50808273ffffffffffffffffffffffffffffffffffffffff168473ffffffffffffffffffffffffffffffffffffffff167fddf252ad1be2c89b69c2b068fc378daa952ba7f163c4a11628f55a4df523b3ef60405160405180910390a4505050565b60006130ac83600001836135c7565b60001c905092915050565b6000806000806130ca866000018661364a565b915091508160001c8160001c9350935050509250929050565b60006130f6846000018460001b846136e3565b60001c90509392505050565b61311c8282604051806020016040528060008152506137d9565b5050565b600061312e8260000161384a565b9050919050565b600083821b83831b808218925050509392505050565b600080613157836123b9565b9050600084841c905081818161316957fe5b069250505092915050565b600080613181848461142b565b9050600061318e85611533565b905060008087871c915087871c905060008083851c915083851c905060008683816131b557fe5b069050600060018b60020a03905081871b91508982019150818b1b9150808201915081985050505050505050509392505050565b6131f4848484612e5a565b6132008484848461385b565b613255576040517f08c379a00000000000000000000000000000000000000000000000000000000081526004018080602001828103825260328152602001806142d06032913960400191505060405180910390fd5b50505050565b606060008214156132a3576040518060400160405280600181526020017f3000000000000000000000000000000000000000000000000000000000000000815250905061339d565b600082905060005b600082146132cd578080600101915050600a82816132c557fe5b0491506132ab565b60608167ffffffffffffffff811180156132e657600080fd5b506040519080825280601f01601f1916602001820160405280156133195781602001600182028036833780820191505090505b50905060006001830390508593505b6000841461339557600a848161333a57fe5b0660300160f81b8282806001900393508151811061335457fe5b60200101907effffffffffffffffffffffffffffffffffffffffffffffffffffffffffffff1916908160001a905350600a848161338d57fe5b049350613328565b819450505050505b919050565b60006133b4836000018360001b613a74565b905092915050565b600081600001805490509050919050565b60008060005b848054905081101561341357838582815481106133ec57fe5b906000526020600020015414156134065760019150613413565b80806001019150506133d3565b505092915050565b600080600090505b838054905081101561354d57826040516020018082805190602001908083835b602083106134665780518252602082019150602081019050602083039250613443565b6001836020036101000a038019825116818451168082178552505050505050905001915050604051602081830303815290604052805190602001208482815481106134ad57fe5b9060005260206000200160405160200180828054600181600116156101000203166002900480156135155780601f106134f3576101008083540402835291820191613515565b820191906000526020600020905b815481529060010190602001808311613501575b5050915050604051602081830303815290604052805190602001201415613540576001915050613553565b8080600101915050613423565b50600090505b92915050565b505050565b6000613570836000018360001b613a97565b905092915050565b600061358a836000018360001b613b7f565b905092915050565b60006135be846000018460001b8473ffffffffffffffffffffffffffffffffffffffff1660001b613bef565b90509392505050565b600081836000018054905011613628576040517f08c379a00000000000000000000000000000000000000000000000000000000081526004018080602001828103825260228152602001806142ae6022913960400191505060405180910390fd5b82600001828154811061363757fe5b9060005260206000200154905092915050565b600080828460000180549050116136ac576040517f08c379a00000000000000000000000000000000000000000000000000000000081526004018080602001828103825260228152602001806144506022913960400191505060405180910390fd5b60008460000184815481106136bd57fe5b906000526020600020906002020190508060000154816001015492509250509250929050565b600080846001016000858152602001908152602001600020549050600081141583906137aa576040517f08c379a00000000000000000000000000000000000000000000000000000000081526004018080602001828103825283818151815260200191508051906020019080838360005b8381101561376f578082015181840152602081019050613754565b50505050905090810190601f16801561379c5780820380516001836020036101000a031916815260200191505b509250505060405180910390fd5b508460000160018203815481106137bd57fe5b9060005260206000209060020201600101549150509392505050565b6137e38383613ccb565b6137f0600084848461385b565b613845576040517f08c379a00000000000000000000000000000000000000000000000000000000081526004018080602001828103825260328152602001806142d06032913960400191505060405180910390fd5b505050565b600081600001805490509050919050565b600061387c8473ffffffffffffffffffffffffffffffffffffffff16613ebf565b6138895760019050613a6c565b60606139f363150b7a0260e01b61389e612a0f565b888787604051602401808573ffffffffffffffffffffffffffffffffffffffff1681526020018473ffffffffffffffffffffffffffffffffffffffff16815260200183815260200180602001828103825283818151815260200191508051906020019080838360005b83811015613922578082015181840152602081019050613907565b50505050905090810190601f16801561394f5780820380516001836020036101000a031916815260200191505b5095505050505050604051602081830303815290604052907bffffffffffffffffffffffffffffffffffffffffffffffffffffffff19166020820180517bffffffffffffffffffffffffffffffffffffffffffffffffffffffff83818316178352505050506040518060600160405280603281526020016142d0603291398773ffffffffffffffffffffffffffffffffffffffff16613ed29092919063ffffffff16565b90506000818060200190516020811015613a0c57600080fd5b8101908080519060200190929190505050905063150b7a0260e01b7bffffffffffffffffffffffffffffffffffffffffffffffffffffffff1916817bffffffffffffffffffffffffffffffffffffffffffffffffffffffff191614925050505b949350505050565b600080836001016000848152602001908152602001600020541415905092915050565b60008083600101600084815260200190815260200160002054905060008114613b735760006001820390506000600186600001805490500390506000866000018281548110613ae257fe5b9060005260206000200154905080876000018481548110613aff57fe5b9060005260206000200181905550600183018760010160008381526020019081526020016000208190555086600001805480613b3757fe5b60019003818190600052602060002001600090559055866001016000878152602001908152602001600020600090556001945050505050613b79565b60009150505b92915050565b6000613b8b8383613eea565b613be4578260000182908060018154018082558091505060019003906000526020600020016000909190919091505582600001805490508360010160008481526020019081526020016000208190555060019050613be9565b600090505b92915050565b6000808460010160008581526020019081526020016000205490506000811415613c9657846000016040518060400160405280868152602001858152509080600181540180825580915050600190039060005260206000209060020201600090919091909150600082015181600001556020820151816001015550508460000180549050856001016000868152602001908152602001600020819055506001915050613cc4565b82856000016001830381548110613ca957fe5b90600052602060002090600202016001018190555060009150505b9392505050565b600073ffffffffffffffffffffffffffffffffffffffff168273ffffffffffffffffffffffffffffffffffffffff161415613d6e576040517f08c379a00000000000000000000000000000000000000000000000000000000081526004018080602001828103825260208152602001807f4552433732313a206d696e7420746f20746865207a65726f206164647265737381525060200191505060405180910390fd5b613d77816129f2565b15613dea576040517f08c379a000000000000000000000000000000000000000000000000000000000815260040180806020018281038252601c8152602001807f4552433732313a20746f6b656e20616c7265616479206d696e7465640000000081525060200191505060405180910390fd5b613df660008383613559565b613e4781600160008573ffffffffffffffffffffffffffffffffffffffff1673ffffffffffffffffffffffffffffffffffffffff16815260200190815260200160002061357890919063ffffffff16565b50613e5e818360026135929092919063ffffffff16565b50808273ffffffffffffffffffffffffffffffffffffffff16600073ffffffffffffffffffffffffffffffffffffffff167fddf252ad1be2c89b69c2b068fc378daa952ba7f163c4a11628f55a4df523b3ef60405160405180910390a45050565b600080823b905060008111915050919050565b6060613ee18484600085613f0d565b90509392505050565b600080836001016000848152602001908152602001600020541415905092915050565b606082471015613f68576040517f08c379a00000000000000000000000000000000000000000000000000000000081526004018080602001828103825260268152602001806143736026913960400191505060405180910390fd5b613f7185613ebf565b613fe3576040517f08c379a000000000000000000000000000000000000000000000000000000000815260040180806020018281038252601d8152602001807f416464726573733a2063616c6c20746f206e6f6e2d636f6e747261637400000081525060200191505060405180910390fd5b600060608673ffffffffffffffffffffffffffffffffffffffff1685876040518082805190602001908083835b602083106140335780518252602082019150602081019050602083039250614010565b6001836020036101000a03801982511681845116808217855250505050505090500191505060006040518083038185875af1925050503d8060008114614095576040519150601f19603f3d011682016040523d82523d6000602084013e61409a565b606091505b50915091506140aa8282866140b6565b92505050949350505050565b606083156140c65782905061417b565b6000835111156140d95782518084602001fd5b816040517f08c379a00000000000000000000000000000000000000000000000000000000081526004018080602001828103825283818151815260200191508051906020019080838360005b83811015614140578082015181840152602081019050614125565b50505050905090810190601f16801561416d5780820380516001836020036101000a031916815260200191505b509250505060405180910390fd5b9392505050565b60405180606001604052806000815260200160008152602001606081525090565b6040518060800160405280606081526020016000815260200160008152602001600081525090565b828054600181600116156101000203166002900490600052602060002090601f016020900481019282601f1061420c57805160ff191683800117855561423a565b8280016001018555821561423a579182015b8281111561423957825182559160200191906001019061421e565b5b509050614247919061426c565b5090565b60405180606001604052806000815260200160008152602001606081525090565b5b8082111561428557600081600090555060010161426d565b509056fe41207469657220776974682074686973206e616d6520616c726561647920657869737473456e756d657261626c655365743a20696e646578206f7574206f6620626f756e64734552433732313a207472616e7366657220746f206e6f6e20455243373231526563656976657220696d706c656d656e746572416464696e6720426c75655072696e7420746f206e6f6e6578697374656e742074696572215468657265206973206e6f207375636820626c75657072696e7420696e20746869732074696572214552433732313a207472616e7366657220746f20746865207a65726f2061646472657373416464726573733a20696e73756666696369656e742062616c616e636520666f722063616c6c4552433732313a206f70657261746f7220717565727920666f72206e6f6e6578697374656e7420746f6b656e4552433732313a20617070726f76652063616c6c6572206973206e6f74206f776e6572206e6f7220617070726f76656420666f7220616c6c4552433732313a2062616c616e636520717565727920666f7220746865207a65726f20616464726573734552433732313a206f776e657220717565727920666f72206e6f6e6578697374656e7420746f6b656e456e756d657261626c654d61703a20696e646578206f7574206f6620626f756e64734552433732313a20617070726f76656420717565727920666f72206e6f6e6578697374656e7420746f6b656e4552433732313a207472616e73666572206f6620746f6b656e2074686174206973206e6f74206f776e4275666665722073697a6520746f6f20736d616c6c2c206974206d7573742062652061626c6520746f20686f6c64202a6d61785f737570706c792a20696427734552433732314d657461646174613a2055524920717565727920666f72206e6f6e6578697374656e7420746f6b656e5468697320746965722065786973747320616e6420616c7265616479206861732061206d61736b2e4552433732313a20617070726f76616c20746f2063757272656e74206f776e65724552433732313a207472616e736665722063616c6c6572206973206e6f74206f776e6572206e6f7220617070726f766564506c6561736520737065636966792061206e756d626572206265747765656e203020616e64203235365468697320697320616c72656164792061206b6e6f776e207261726974792076616c7565a2646970667358221220106bb450d846c185d7d8fbcc07513fee36e5774b2a408269d90e063ec0a2ed3664736f6c63430007000033",
  "immutableReferences": {},
  "source": "//SPDX-License-Identifier: MIT\npragma solidity >= 0.6.0 <0.8.0;\n\nimport \"@openzeppelin/contracts/token/ERC721/ERC721.sol\";\nimport {CollectibleUtils as ut} from \"./utils.sol\";\n\ncontract Collectible is ERC721 {\n\n    // contract owner\n    address owner;\n\n    event newOwner(address indexed from, address to);\n\n    // tier_id => Tier\n    mapping(uint => ut.Tier) tiers;\n    uint[] tier_ids; // [2, 3, ...], means tiers with mask [11, 111, ...]\n    string[] tier_names;\n\n    // contains all mined items in circulation.\n    // trailing mask bits of the key (item_id) signify the tier\n    //\n    // item_id => Item\n    mapping(uint => ut.Item) items;\n\n    // tier_id => ItemBlueprint[]\n    mapping(uint => ut.ItemBlueprint[]) tier_blueprints;\n\n    // all parameters necessary to validate ownership of an item id against the owner's provided challenge string etc.\n    event minedSuccessfully(address indexed user, string challenge, uint blocknumber, uint tier_blueprints_buffer_size, uint tier_blueprints, uint blueprint_max_supply);\n\n    modifier isOwner() {\n        require(msg.sender == owner);\n        _;\n    }\n\n    constructor() ERC721(\"Collectible\", \"CLB\"){\n        owner = msg.sender;\n    }\n\n    /**\n     * @param challenge is the challenge string, basically a random input of arbitrary length\n     */\n    function mine(string memory challenge) public payable {\n        // the combined input to hash. Should be challenge string and latest block hash\n        bytes memory input = abi.encodePacked(challenge/*,blockhash(block.number-1)*/); // blockhash commented out for testing\n\n        // hash of the challenge input\n        bytes32 hashed_challenge = keccak256(input);\n\n        // detect if we match a tier, and which one\n        uint tier_id = find_present_tier(hashed_challenge); // returns mask_bits\n        require(tier_id != 0x0, \"Did not crack the challenge\");\n\n        // we know the tier, now figure out which blueprint they mined\n        uint blueprint_id = which_tier_blueprint(hashed_challenge, tier_id);\n\n        // we know which blueprint, now which exact blueprint instance (aka which blueprint instance id) did they mine?\n        uint item_id = item_id(hashed_challenge, tier_id, blueprint_id); \n\n        require(!_exists(item_id), \"Token already exists\");\n\n        mint(tier_id, blueprint_id, item_id, msg.sender);\n\n        // emit an event with all necessary information to validate that this user did in fact mine this item_id\n        // in other words, validate ownership of this user with the token minted and placed in items mapping (see Collectible.sol)\n        //\n        // you can re-hash the challenge with block hash and derive the blueprint_id, tier_id and blueprint instance id that matches the token\n        emit minedSuccessfully(\n            msg.sender,\n            challenge,\n            block.number,\n            getTierBPBufferSize(tier_id),\n            getTierItemsCount(tier_id),\n            getBlueprintMaxSupply(tier_id, blueprint_id)\n        );\n    }\n\n    /**\n     * Returns the global unique ID of the mined item, whether or not it already exists.\n     */\n    function item_id(bytes32 _hash, uint tier_id, uint blueprint_id) private returns (uint){\n        uint blueprint_supply = getBlueprintMaxSupply(tier_id, blueprint_id);\n        uint tier_items_buff_size = getTierBPBufferSize(tier_id);\n\n        // shift the tier mask off memory\n        uint shift_tier_mask;\n        bytes32 bshift_tier_mask;\n        assembly {\n            shift_tier_mask := shr(tier_id, _hash)\n            bshift_tier_mask := shr(tier_id, _hash)\n        }\n\n        // now shift the blueprint id buffer off memory\n        uint shift_bp_id_buffer;\n        bytes32 bshift_bp_id_buffer;\n        assembly{\n            shift_bp_id_buffer := shr(tier_items_buff_size, shift_tier_mask)\n            bshift_bp_id_buffer := shr(tier_items_buff_size, shift_tier_mask)\n        }\n\n        // now what remains are random bits of the hash, the least significant bits represent the blueprint instance id\n        // so modulo with the blueprint's max supply and we have our id\n        uint id = (shift_bp_id_buffer) % blueprint_supply;\n\n        // now we have the tier mask, the blueprint id and the blueprint's instance id\n        // concatenate them all to form the ultimate item_id\n        uint tier_mask = 2**tier_id-1;\n        assembly {\n            id := shl(tier_items_buff_size, id)\n            id := add(id, blueprint_id)\n            id := shl(tier_id, id)\n            id := add(id, tier_mask)\n        }\n\n        return id;\n    }\n\n    /**\n     * find out if the hash covers one of the tier masks, if so, return the tier name string.\n     */\n    function find_present_tier(bytes32 _hash) public view returns (uint longest_mask){\n        uint[] memory mask_exps = getMasks();\n        longest_mask = 0;\n        for (uint256 index = 0; index < mask_exps.length; index++) {\n            uint mask = 2**mask_exps[index]-1;\n            uint offset = 256 - mask_exps[index];\n            bytes32 xored = check_mask(_hash, mask, offset);\n\n            // we don't only want to find a match, we also want the biggest mask that fits\n            if (xored == 0x0 && mask_exps[index] > longest_mask) longest_mask = mask_exps[index];\n        }\n    }\n\n    /**\n    This function looks at which blueprint_id is present in the specified hash and tier\n     */\n    // remeber, item_id INCLUDES the tier's mask\n    function which_tier_blueprint(bytes32 _hash, uint tier) private returns (uint){\n        uint size = getTierItemsCount(tier); // returns 0-based length\n\n        // convert the hash to an int, and shift the mask bits outside the buffer\n        uint _hash_int;\n        assembly {_hash_int := shr(tier, _hash)}\n\n        // if we now calculate the hash % amount_items, we should result in a random, existing, item_id\n        return _hash_int % size;\n    }\n\n    // check if we have a match\n    // if we do, by shifting the mask all the way to the start of the reserved 32 byte memory (and shift the hash by the same offset)\n    // if we xor those 2 and we result in 0, then the target mask matches the last x bits of the hashed_challenge, and the sender has 'won'\n    function check_mask(bytes32 _hash, uint mask, uint mask_length) private pure returns (bytes32 xored) {\n        assembly{\n            let x := shl(mask_length, _hash)\n            let y := shl(mask_length, mask)\n            xored := xor(x, y)\n        }\n    }\n\n    function getItemName(uint blueprint_id, uint tier_id) public view returns (string memory) {\n        require(tiers[tier_id].id != 0, \"This tier doesn't exist!\");\n        require(tier_blueprints[tier_id].length >= blueprint_id, \"There is no such blueprint in this tier!\");\n\n        return tier_blueprints[tier_id][blueprint_id].name;\n    }\n\n    /**\n     * the total oods will be 1 out of 2^(exponent) - 1\n     * so if exponent is 3, the total odds of mining this tier is 2^3 - 1 = 1 out of 7\n     */\n    function newTier(string memory tier, uint exponent, uint buffer_size) public isOwner {\n        addTier(tier, exponent, buffer_size);\n    }\n\n    function getTierBPBufferSize(uint tier_id) public returns(uint) {\n        require(tier_blueprints[tier_id].length != 0, \"Tier doesn't exist!\");\n        return tiers[tier_id].item_buffer_size;\n    }\n\n    function addTier(string memory tier, uint id, uint buffer_size) private returns (uint) {\n        require(id >0 && id < 256, \"Please specify a number between 0 and 256\");\n        require(tiers[id].id == 0, \"This tier exists and already has a mask.\");\n        require(contains_int(tier_ids, id) == false, \"This is already a known rarity value\");\n        require(contains_string(tier_names, tier) == false, \"A tier with this name already exists\");\n\n        ut.Tier memory new_tier;\n        new_tier.name = tier;\n        new_tier.id = id;\n        new_tier.item_buffer_size = buffer_size;\n\n        tiers[id] = new_tier;\n        tier_ids.push(id);\n        tier_names.push(tier);\n\n        return id;\n    }\n\n    function addTierBlueprint(uint tier_id, uint max_supply, uint supply_buffer_size, string memory name) public isOwner{\n        require(tiers[tier_id].id != 0, \"Adding BluePrint to nonexistent tier!\");\n        require(2**supply_buffer_size-1 >= max_supply, \"Buffer size too small, it must be able to hold *max_supply* id's\");\n        uint n = tiers[tier_id].item_buffer_size;\n        if (2**n-1 <= tier_blueprints[tier_id].length){\n            // if we reach the max items that the buffer of this tier can hold, increment buffer size\n            tiers[tier_id].item_buffer_size = tiers[tier_id].item_buffer_size + 1;\n        }\n        ut.ItemBlueprint memory bp = ut.ItemBlueprint(supply_buffer_size, max_supply, name);\n        tier_blueprints[tier_id].push(bp);\n    }\n\n    function getBlueprintMaxSupply(uint tier_id, uint blueprint_id) public view returns (uint) {        \n        require(tier_blueprints[tier_id].length > blueprint_id, \"Blueprint ID doesn't exist!\");\n        return tier_blueprints[tier_id][blueprint_id].max_supply;\n    }\n\n    function getTierItemsCount(uint tier_id) public returns (uint){\n        require(tiers[tier_id].id != 0, \"This tier doesn't exist!\");\n        return tier_blueprints[tier_id].length;\n    }\n\n    function getTierBufferSize(uint tier_id) public view returns(uint) {\n        require(tiers[tier_id].id != 0, \"Tier doesn't exist!\");\n        return tiers[tier_id].item_buffer_size;\n    }\n\n    function getMasks() public view returns (uint[] memory) {\n        return tier_ids;\n    }\n\n    function mint(uint tier_id, uint blueprint_id, uint id, address to) public isOwner {\n        uint tier_items_buff_size = getTierBPBufferSize(tier_id);\n        uint instance_id;\n        assembly {\n            instance_id := shr(tier_id, id)\n            instance_id := shr(tier_items_buff_size, id)\n        }\n\n        ut.ItemBlueprint memory bp = tier_blueprints[tier_id][blueprint_id];\n        ut.Item memory minted = ut.Item(bp.name, instance_id, blueprint_id, tier_id);\n        \n        // mint token for winner\n        _safeMint(to, id);\n\n        // add newly minted token to circulation\n        // mint before saving item, successfully minting represents a guaranteed ownership\n        items[id] = minted;\n    }\n\n    function transferOwnership(address to) public isOwner {\n        owner = to;\n        emit newOwner(msg.sender, owner);\n    }\n\n    function contains_string(string[] storage array, string memory target) private view returns(bool) {\n        for (uint256 index = 0; index < array.length; index++) {\n            if (keccak256(abi.encodePacked(array[index])) == keccak256(abi.encodePacked(target))) {\n                return true;\n            }\n        }\n        return false;\n    }\n\n    function contains_int(uint[] storage array, uint target) private view returns(bool) {\n        bool found;\n        for (uint256 index = 0; index < array.length; index++) {\n            if (array[index] == target) {\n                found = true;\n                break;\n            }\n        }\n    }\n}",
  "sourcePath": "/home/robbe/Desktop/rarity-nft/contracts/Collectible.sol",
  "compiler": {
    "name": "solc",
    "version": "0.7.0+commit.9e61f92b.Emscripten.clang"
  },
  "schemaVersion": "3.3.4",
  "updatedAt": "2021-04-24T13:51:19.401Z",
  "devdoc": {
    "kind": "dev",
    "methods": {
      "approve(address,uint256)": {
        "details": "See {IERC721-approve}."
      },
      "balanceOf(address)": {
        "details": "See {IERC721-balanceOf}."
      },
      "baseURI()": {
        "details": "Returns the base URI set via {_setBaseURI}. This will be automatically added as a prefix in {tokenURI} to each token's URI, or to the token ID if no specific URI is set for that token ID."
      },
      "getApproved(uint256)": {
        "details": "See {IERC721-getApproved}."
      },
      "isApprovedForAll(address,address)": {
        "details": "See {IERC721-isApprovedForAll}."
      },
      "mine(string)": {
        "params": {
          "challenge": "is the challenge string, basically a random input of arbitrary length"
        }
      },
      "name()": {
        "details": "See {IERC721Metadata-name}."
      },
      "ownerOf(uint256)": {
        "details": "See {IERC721-ownerOf}."
      },
      "safeTransferFrom(address,address,uint256)": {
        "details": "See {IERC721-safeTransferFrom}."
      },
      "safeTransferFrom(address,address,uint256,bytes)": {
        "details": "See {IERC721-safeTransferFrom}."
      },
      "setApprovalForAll(address,bool)": {
        "details": "See {IERC721-setApprovalForAll}."
      },
      "supportsInterface(bytes4)": {
        "details": "See {IERC165-supportsInterface}. Time complexity O(1), guaranteed to always use less than 30 000 gas."
      },
      "symbol()": {
        "details": "See {IERC721Metadata-symbol}."
      },
      "tokenByIndex(uint256)": {
        "details": "See {IERC721Enumerable-tokenByIndex}."
      },
      "tokenOfOwnerByIndex(address,uint256)": {
        "details": "See {IERC721Enumerable-tokenOfOwnerByIndex}."
      },
      "tokenURI(uint256)": {
        "details": "See {IERC721Metadata-tokenURI}."
      },
      "totalSupply()": {
        "details": "See {IERC721Enumerable-totalSupply}."
      },
      "transferFrom(address,address,uint256)": {
        "details": "See {IERC721-transferFrom}."
      }
    },
    "version": 1
  },
  "userdoc": {
    "kind": "user",
    "methods": {
      "find_present_tier(bytes32)": {
        "notice": "find out if the hash covers one of the tier masks, if so, return the tier name string."
      },
      "newTier(string,uint256,uint256)": {
        "notice": "the total oods will be 1 out of 2^(exponent) - 1 so if exponent is 3, the total odds of mining this tier is 2^3 - 1 = 1 out of 7"
      }
    },
    "version": 1
  }
}