{
  "contractName": "Distributor",
  "abi": [
    {
      "inputs": [
        {
          "internalType": "contract Collectible",
          "name": "_token",
          "type": "address"
        }
      ],
      "stateMutability": "nonpayable",
      "type": "constructor"
    },
    {
      "anonymous": false,
      "inputs": [
        {
          "indexed": true,
          "internalType": "address",
          "name": "user",
          "type": "address"
        },
        {
          "indexed": false,
          "internalType": "string",
          "name": "tier",
          "type": "string"
        },
        {
          "indexed": false,
          "internalType": "string",
          "name": "item_name",
          "type": "string"
        },
        {
          "indexed": false,
          "internalType": "string",
          "name": "challenge",
          "type": "string"
        }
      ],
      "name": "minedSuccessfully",
      "type": "event"
    },
    {
      "inputs": [
        {
          "internalType": "string",
          "name": "challenge",
          "type": "string"
        }
      ],
      "name": "check_challenge",
      "outputs": [
        {
          "internalType": "uint256",
          "name": "",
          "type": "uint256"
        }
      ],
      "stateMutability": "nonpayable",
      "type": "function"
    },
    {
      "inputs": [
        {
          "internalType": "string",
          "name": "challenge",
          "type": "string"
        }
      ],
      "name": "mine",
      "outputs": [],
      "stateMutability": "payable",
      "type": "function"
    },
    {
      "inputs": [
        {
          "internalType": "bytes32",
          "name": "_hash",
          "type": "bytes32"
        }
      ],
      "name": "find_present_tier",
      "outputs": [
        {
          "internalType": "uint256",
          "name": "",
          "type": "uint256"
        }
      ],
      "stateMutability": "view",
      "type": "function"
    }
  ],
  "bytecode": "0x608060405234801561001057600080fd5b506040516107563803806107568339818101604052602081101561003357600080fd5b8101908080519060200190929190505050806000806101000a81548173ffffffffffffffffffffffffffffffffffffffff021916908373ffffffffffffffffffffffffffffffffffffffff160217905550506106c2806100946000396000f3fe6080604052600436106100345760003560e01c806341efde851461003957806371a906bd14610115578063841819df14610164575b600080fd5b34801561004557600080fd5b506100ff6004803603602081101561005c57600080fd5b810190808035906020019064010000000081111561007957600080fd5b82018360208201111561008b57600080fd5b803590602001918460018302840111640100000000831117156100ad57600080fd5b91908080601f016020809104026020016040519081016040528093929190818152602001838380828437600081840152601f19601f82011690508083019250505050505050919291929050505061021f565b6040518082815260200191505060405180910390f35b34801561012157600080fd5b5061014e6004803603602081101561013857600080fd5b810190808035906020019092919050505061033b565b6040518082815260200191505060405180910390f35b61021d6004803603602081101561017a57600080fd5b810190808035906020019064010000000081111561019757600080fd5b8201836020820111156101a957600080fd5b803590602001918460018302840111640100000000831117156101cb57600080fd5b91908080601f016020809104026020016040519081016040528093929190818152602001838380828437600081840152601f19601f820116905080830192505050505050509192919290505050610518565b005b60006060826040516020018082805190602001908083835b6020831061025a5780518252602082019150602081019050602083039250610237565b6001836020036101000a038019825116818451168082178552505050505050905001915050604051602081830303815290604052905060008180519060200120905060006102a78261033b565b90506000811415610320576040517f08c379a000000000000000000000000000000000000000000000000000000000815260040180806020018281038252600d8152602001807f4e6f207469657220666f756e640000000000000000000000000000000000000081525060200191505060405180910390fd5b600061032c838361059f565b90506000945050505050919050565b6000606060008054906101000a900473ffffffffffffffffffffffffffffffffffffffff1673ffffffffffffffffffffffffffffffffffffffff1663fd258be36040518163ffffffff1660e01b815260040160006040518083038186803b1580156103a557600080fd5b505afa1580156103b9573d6000803e3d6000fd5b505050506040513d6000823e3d601f19601f8201168201806040525060208110156103e357600080fd5b810190808051604051939291908464010000000082111561040357600080fd5b8382019150602082018581111561041957600080fd5b825186602082028301116401000000008211171561043657600080fd5b8083526020830192505050908051906020019060200280838360005b8381101561046d578082015181840152602081019050610452565b50505050905001604052505050905060005b815181101561050c576000600183838151811061049857fe5b602002602001015160020a03905060008383815181106104b457fe5b602002602001015161010003905060006104cf878484610676565b90506000801b8114156104fc578484815181106104e857fe5b602002602001015195505050505050610513565b505050808060010191505061047f565b5060009150505b919050565b60006105238261021f565b90506000811461059b576040517f08c379a000000000000000000000000000000000000000000000000000000000815260040180806020018281038252601b8152602001807f446964206e6f7420637261636b20746865206368616c6c656e6765000000000081525060200191505060405180910390fd5b5050565b600080600160008054906101000a900473ffffffffffffffffffffffffffffffffffffffff1673ffffffffffffffffffffffffffffffffffffffff1663c154eb3f856040518263ffffffff1660e01b815260040180828152602001915050602060405180830381600087803b15801561061757600080fd5b505af115801561062b573d6000803e3d6000fd5b505050506040513d602081101561064157600080fd5b8101908080519060200190929190505050019050600084841c9050600082828161066757fe5b06905080935050505092915050565b600083821b83831b80821892505050939250505056fea2646970667358221220ced28155a4ba48919154b494173bb706ab3d1109320885d38c51f32a883c396c64736f6c63430007000033",
  "immutableReferences": {},
  "source": "//SPDX-License-Identifier: MIT\npragma solidity >= 0.6.0 <0.8.0;\n\nimport \"./Collectible.sol\";\nimport {CollectibleUtils as ut} from \"./utils.sol\";\n\ncontract Distributor {\n    Collectible private token;\n\n    constructor (Collectible _token) {\n        token=_token;\n    }\n\n    event minedSuccessfully(address indexed user, string tier, string item_name, string challenge);\n\n    /**\n     * @param challenge is the challenge string, basically a random input of arbitrary length\n     * \n     * summary:\n     * challenge = \"apple\"\n     * target = \"cd25\"\n     * returns keccak256(\"apple\") == 0x??...??cd25 (so returns true)\n     */\n    function check_challenge(string memory challenge) public returns(uint) {\n\n        // the combined input to hash. Should be challenge string and latest block hash\n        bytes memory input = abi.encodePacked(challenge/*,blockhash(block.number-1)*/);\n\n        // hash of the challenge input\n        bytes32 hashed_challenge = keccak256(input);\n\n        // detect if we match a tier, and hich one\n        uint tier = find_present_tier(hashed_challenge); // returns mask_bits\n        // tier can't be empty string\n        require(tier != 0, \"No tier found\");\n\n        // we know the tier, now figure out which item they mined\n        uint item_id = which_item(hashed_challenge, tier);\n\n        //string memory item_name = token.getItemName(item_id);\n\n        //emit minedSuccessfully(msg.sender, tier, item_name, challenge);\n\n        // we keep the challenge hash as id, but convert to int\n        //uint challenge_id;\n        //assembly{challenge_id := shl(0x0, hashed_challenge)}   \n\n        return 0;//challenge_id;\n    }\n\n    function mine(string memory challenge) public payable {\n        uint token_id = check_challenge(challenge);\n        require(token_id == 0x0, \"Did not crack the challenge\");\n        //token.mint(token_id, msg.sender);\n    }\n\n    /**\n     * find out if the hash covers one of the tier masks, if so, return the tier name string.\n     */\n    function find_present_tier(bytes32 _hash) public view returns (uint){\n        uint[] memory mask_exps = token.getMasks();\n        for (uint256 index = 0; index < mask_exps.length; index++) {\n            uint mask = 2**mask_exps[index]-1;\n            uint offset = 256 - mask_exps[index];\n            bytes32 xored = check_mask(_hash, mask, offset);\n\n            if (xored == 0x0) return mask_exps[index];\n        }\n        return 0;\n    }\n\n    // remeber, item_id INCLUDES the tier's mask\n    function which_item(bytes32 _hash, uint tier) private returns (uint){\n        uint size = token.getTierItemsCount(tier)+1; // returns 0-based length\n\n        // convert the hash to an int, and shift the mask bits outside the buffer\n        uint _hash_int;\n        assembly {\n            _hash_int := shr(tier, _hash)\n        }\n\n        // if we now calculate the hash % amount_items, we should result in a random, existing, item_id\n        uint blueprint_id = _hash_int % size;\n        return blueprint_id;\n    }\n\n    // check if we have a match\n    // if we do, by shifting the mask all the way to the start of the reserved 32 byte memory (and shift the hash by the same offset)\n    // if we xor those 2 and we result in 0, then the target mask matches the last x bits of the hashed_challenge, and the sender has 'won'\n    function check_mask(bytes32 _hash, uint mask, uint mask_length) private pure returns (bytes32 xored) {\n        assembly{\n            let x := shl(mask_length, _hash)\n            let y := shl(mask_length, mask)\n            xored := xor(x, y)\n        }\n    }\n\n    /**\n     * Takes the sub-bitstring specified by start- and end_index, shifts it all the way to the right, and returns it.\n     */\n    function get_sub_bit_array(bytes32 bit_string, uint start_index, uint end_index) private pure returns (bytes32 ret) {\n        uint offset_left = start_index;\n        // first shift back to original spot, now shift all the way to the right\n        uint second_offset_right = offset_left + (256-end_index);\n        assembly {\n            let x := shl(offset_left, bit_string)\n            ret := shr(second_offset_right, x)\n        }\n        return ret;\n    }\n}",
  "sourcePath": "/home/robbe/Desktop/Introducing Rarity with NFT/contracts/Distributor.sol",
  "compiler": {
    "name": "solc",
    "version": "0.7.0+commit.9e61f92b.Emscripten.clang"
  },
  "schemaVersion": "3.3.4",
  "updatedAt": "2021-03-31T16:16:41.843Z",
  "devdoc": {
    "kind": "dev",
    "methods": {
      "check_challenge(string)": {
        "params": {
          "challenge": "is the challenge string, basically a random input of arbitrary length  summary: challenge = \"apple\" target = \"cd25\" returns keccak256(\"apple\") == 0x??...??cd25 (so returns true)"
        }
      }
    },
    "version": 1
  },
  "userdoc": {
    "kind": "user",
    "methods": {
      "find_present_tier(bytes32)": {
        "notice": "find out if the hash covers one of the tier masks, if so, return the tier name string."
      }
    },
    "version": 1
  }
}